{
	"register_user.sol": {
		"userRegister": {
			"abi": [
				{
					"anonymous": false,
					"inputs": [
						{
							"indexed": true,
							"internalType": "address",
							"name": "wallet_address",
							"type": "address"
						},
						{
							"indexed": false,
							"internalType": "string",
							"name": "email",
							"type": "string"
						},
						{
							"indexed": false,
							"internalType": "string",
							"name": "first_name",
							"type": "string"
						},
						{
							"indexed": false,
							"internalType": "string",
							"name": "last_name",
							"type": "string"
						},
						{
							"indexed": false,
							"internalType": "string",
							"name": "house_address",
							"type": "string"
						},
						{
							"indexed": false,
							"internalType": "string",
							"name": "role",
							"type": "string"
						}
					],
					"name": "userRegistry",
					"type": "event"
				},
				{
					"inputs": [
						{
							"internalType": "string",
							"name": "email",
							"type": "string"
						},
						{
							"internalType": "string",
							"name": "first_name",
							"type": "string"
						},
						{
							"internalType": "string",
							"name": "last_name",
							"type": "string"
						},
						{
							"internalType": "string",
							"name": "house_address",
							"type": "string"
						},
						{
							"internalType": "string",
							"name": "role",
							"type": "string"
						}
					],
					"name": "registerUser",
					"outputs": [],
					"stateMutability": "nonpayable",
					"type": "function"
				},
				{
					"inputs": [
						{
							"internalType": "address",
							"name": "",
							"type": "address"
						}
					],
					"name": "users",
					"outputs": [
						{
							"internalType": "string",
							"name": "email",
							"type": "string"
						},
						{
							"internalType": "string",
							"name": "first_name",
							"type": "string"
						},
						{
							"internalType": "string",
							"name": "last_name",
							"type": "string"
						},
						{
							"internalType": "string",
							"name": "house_address",
							"type": "string"
						},
						{
							"internalType": "string",
							"name": "role",
							"type": "string"
						},
						{
							"internalType": "address",
							"name": "wallet_address",
							"type": "address"
						}
					],
					"stateMutability": "view",
					"type": "function"
				}
			],
			"devdoc": {
				"kind": "dev",
				"methods": {},
				"version": 1
			},
			"evm": {
				"assembly": "    /* \"register_user.sol\":98:1222  contract userRegister {... */\n  mstore(0x40, 0x80)\n  callvalue\n  dup1\n  iszero\n  tag_1\n  jumpi\n  0x00\n  dup1\n  revert\ntag_1:\n  pop\n  dataSize(sub_0)\n  dup1\n  dataOffset(sub_0)\n  0x00\n  codecopy\n  0x00\n  return\nstop\n\nsub_0: assembly {\n        /* \"register_user.sol\":98:1222  contract userRegister {... */\n      mstore(0x40, 0x80)\n      callvalue\n      dup1\n      iszero\n      tag_1\n      jumpi\n      0x00\n      dup1\n      revert\n    tag_1:\n      pop\n      jumpi(tag_2, lt(calldatasize, 0x04))\n      shr(0xe0, calldataload(0x00))\n      dup1\n      0xa87430ba\n      eq\n      tag_3\n      jumpi\n      dup1\n      0xac9f0a40\n      eq\n      tag_4\n      jumpi\n    tag_2:\n      0x00\n      dup1\n      revert\n        /* \"register_user.sol\":309:346  mapping(address => User) public users */\n    tag_3:\n      tag_5\n      0x04\n      dup1\n      calldatasize\n      sub\n      dup2\n      add\n      swap1\n      tag_6\n      swap2\n      swap1\n      tag_7\n      jump\t// in\n    tag_6:\n      tag_8\n      jump\t// in\n    tag_5:\n      mload(0x40)\n      tag_9\n      swap7\n      swap6\n      swap5\n      swap4\n      swap3\n      swap2\n      swap1\n      tag_10\n      jump\t// in\n    tag_9:\n      mload(0x40)\n      dup1\n      swap2\n      sub\n      swap1\n      return\n        /* \"register_user.sol\":579:1220  function registerUser( ... */\n    tag_4:\n      tag_11\n      0x04\n      dup1\n      calldatasize\n      sub\n      dup2\n      add\n      swap1\n      tag_12\n      swap2\n      swap1\n      tag_13\n      jump\t// in\n    tag_12:\n      tag_14\n      jump\t// in\n    tag_11:\n      stop\n        /* \"register_user.sol\":309:346  mapping(address => User) public users */\n    tag_8:\n      mstore(0x20, 0x00)\n      dup1\n      0x00\n      mstore\n      keccak256(0x00, 0x40)\n      0x00\n      swap2\n      pop\n      swap1\n      pop\n      dup1\n      0x00\n      add\n      dup1\n      sload\n      tag_15\n      swap1\n      tag_16\n      jump\t// in\n    tag_15:\n      dup1\n      0x1f\n      add\n      0x20\n      dup1\n      swap2\n      div\n      mul\n      0x20\n      add\n      mload(0x40)\n      swap1\n      dup2\n      add\n      0x40\n      mstore\n      dup1\n      swap3\n      swap2\n      swap1\n      dup2\n      dup2\n      mstore\n      0x20\n      add\n      dup3\n      dup1\n      sload\n      tag_17\n      swap1\n      tag_16\n      jump\t// in\n    tag_17:\n      dup1\n      iszero\n      tag_18\n      jumpi\n      dup1\n      0x1f\n      lt\n      tag_19\n      jumpi\n      0x0100\n      dup1\n      dup4\n      sload\n      div\n      mul\n      dup4\n      mstore\n      swap2\n      0x20\n      add\n      swap2\n      jump(tag_18)\n    tag_19:\n      dup3\n      add\n      swap2\n      swap1\n      0x00\n      mstore\n      keccak256(0x00, 0x20)\n      swap1\n    tag_20:\n      dup2\n      sload\n      dup2\n      mstore\n      swap1\n      0x01\n      add\n      swap1\n      0x20\n      add\n      dup1\n      dup4\n      gt\n      tag_20\n      jumpi\n      dup3\n      swap1\n      sub\n      0x1f\n      and\n      dup3\n      add\n      swap2\n    tag_18:\n      pop\n      pop\n      pop\n      pop\n      pop\n      swap1\n      dup1\n      0x01\n      add\n      dup1\n      sload\n      tag_21\n      swap1\n      tag_16\n      jump\t// in\n    tag_21:\n      dup1\n      0x1f\n      add\n      0x20\n      dup1\n      swap2\n      div\n      mul\n      0x20\n      add\n      mload(0x40)\n      swap1\n      dup2\n      add\n      0x40\n      mstore\n      dup1\n      swap3\n      swap2\n      swap1\n      dup2\n      dup2\n      mstore\n      0x20\n      add\n      dup3\n      dup1\n      sload\n      tag_22\n      swap1\n      tag_16\n      jump\t// in\n    tag_22:\n      dup1\n      iszero\n      tag_23\n      jumpi\n      dup1\n      0x1f\n      lt\n      tag_24\n      jumpi\n      0x0100\n      dup1\n      dup4\n      sload\n      div\n      mul\n      dup4\n      mstore\n      swap2\n      0x20\n      add\n      swap2\n      jump(tag_23)\n    tag_24:\n      dup3\n      add\n      swap2\n      swap1\n      0x00\n      mstore\n      keccak256(0x00, 0x20)\n      swap1\n    tag_25:\n      dup2\n      sload\n      dup2\n      mstore\n      swap1\n      0x01\n      add\n      swap1\n      0x20\n      add\n      dup1\n      dup4\n      gt\n      tag_25\n      jumpi\n      dup3\n      swap1\n      sub\n      0x1f\n      and\n      dup3\n      add\n      swap2\n    tag_23:\n      pop\n      pop\n      pop\n      pop\n      pop\n      swap1\n      dup1\n      0x02\n      add\n      dup1\n      sload\n      tag_26\n      swap1\n      tag_16\n      jump\t// in\n    tag_26:\n      dup1\n      0x1f\n      add\n      0x20\n      dup1\n      swap2\n      div\n      mul\n      0x20\n      add\n      mload(0x40)\n      swap1\n      dup2\n      add\n      0x40\n      mstore\n      dup1\n      swap3\n      swap2\n      swap1\n      dup2\n      dup2\n      mstore\n      0x20\n      add\n      dup3\n      dup1\n      sload\n      tag_27\n      swap1\n      tag_16\n      jump\t// in\n    tag_27:\n      dup1\n      iszero\n      tag_28\n      jumpi\n      dup1\n      0x1f\n      lt\n      tag_29\n      jumpi\n      0x0100\n      dup1\n      dup4\n      sload\n      div\n      mul\n      dup4\n      mstore\n      swap2\n      0x20\n      add\n      swap2\n      jump(tag_28)\n    tag_29:\n      dup3\n      add\n      swap2\n      swap1\n      0x00\n      mstore\n      keccak256(0x00, 0x20)\n      swap1\n    tag_30:\n      dup2\n      sload\n      dup2\n      mstore\n      swap1\n      0x01\n      add\n      swap1\n      0x20\n      add\n      dup1\n      dup4\n      gt\n      tag_30\n      jumpi\n      dup3\n      swap1\n      sub\n      0x1f\n      and\n      dup3\n      add\n      swap2\n    tag_28:\n      pop\n      pop\n      pop\n      pop\n      pop\n      swap1\n      dup1\n      0x03\n      add\n      dup1\n      sload\n      tag_31\n      swap1\n      tag_16\n      jump\t// in\n    tag_31:\n      dup1\n      0x1f\n      add\n      0x20\n      dup1\n      swap2\n      div\n      mul\n      0x20\n      add\n      mload(0x40)\n      swap1\n      dup2\n      add\n      0x40\n      mstore\n      dup1\n      swap3\n      swap2\n      swap1\n      dup2\n      dup2\n      mstore\n      0x20\n      add\n      dup3\n      dup1\n      sload\n      tag_32\n      swap1\n      tag_16\n      jump\t// in\n    tag_32:\n      dup1\n      iszero\n      tag_33\n      jumpi\n      dup1\n      0x1f\n      lt\n      tag_34\n      jumpi\n      0x0100\n      dup1\n      dup4\n      sload\n      div\n      mul\n      dup4\n      mstore\n      swap2\n      0x20\n      add\n      swap2\n      jump(tag_33)\n    tag_34:\n      dup3\n      add\n      swap2\n      swap1\n      0x00\n      mstore\n      keccak256(0x00, 0x20)\n      swap1\n    tag_35:\n      dup2\n      sload\n      dup2\n      mstore\n      swap1\n      0x01\n      add\n      swap1\n      0x20\n      add\n      dup1\n      dup4\n      gt\n      tag_35\n      jumpi\n      dup3\n      swap1\n      sub\n      0x1f\n      and\n      dup3\n      add\n      swap2\n    tag_33:\n      pop\n      pop\n      pop\n      pop\n      pop\n      swap1\n      dup1\n      0x04\n      add\n      dup1\n      sload\n      tag_36\n      swap1\n      tag_16\n      jump\t// in\n    tag_36:\n      dup1\n      0x1f\n      add\n      0x20\n      dup1\n      swap2\n      div\n      mul\n      0x20\n      add\n      mload(0x40)\n      swap1\n      dup2\n      add\n      0x40\n      mstore\n      dup1\n      swap3\n      swap2\n      swap1\n      dup2\n      dup2\n      mstore\n      0x20\n      add\n      dup3\n      dup1\n      sload\n      tag_37\n      swap1\n      tag_16\n      jump\t// in\n    tag_37:\n      dup1\n      iszero\n      tag_38\n      jumpi\n      dup1\n      0x1f\n      lt\n      tag_39\n      jumpi\n      0x0100\n      dup1\n      dup4\n      sload\n      div\n      mul\n      dup4\n      mstore\n      swap2\n      0x20\n      add\n      swap2\n      jump(tag_38)\n    tag_39:\n      dup3\n      add\n      swap2\n      swap1\n      0x00\n      mstore\n      keccak256(0x00, 0x20)\n      swap1\n    tag_40:\n      dup2\n      sload\n      dup2\n      mstore\n      swap1\n      0x01\n      add\n      swap1\n      0x20\n      add\n      dup1\n      dup4\n      gt\n      tag_40\n      jumpi\n      dup3\n      swap1\n      sub\n      0x1f\n      and\n      dup3\n      add\n      swap2\n    tag_38:\n      pop\n      pop\n      pop\n      pop\n      pop\n      swap1\n      dup1\n      0x05\n      add\n      0x00\n      swap1\n      sload\n      swap1\n      0x0100\n      exp\n      swap1\n      div\n      0xffffffffffffffffffffffffffffffffffffffff\n      and\n      swap1\n      pop\n      dup7\n      jump\t// out\n        /* \"register_user.sol\":579:1220  function registerUser( ... */\n    tag_14:\n        /* \"register_user.sol\":843:844  0 */\n      0x00\n        /* \"register_user.sol\":799:845  users[msg.sender].wallet_address == address(0) */\n      0xffffffffffffffffffffffffffffffffffffffff\n      and\n        /* \"register_user.sol\":799:804  users */\n      0x00\n        /* \"register_user.sol\":799:816  users[msg.sender] */\n      dup1\n        /* \"register_user.sol\":805:815  msg.sender */\n      caller\n        /* \"register_user.sol\":799:816  users[msg.sender] */\n      0xffffffffffffffffffffffffffffffffffffffff\n      and\n      0xffffffffffffffffffffffffffffffffffffffff\n      and\n      dup2\n      mstore\n      0x20\n      add\n      swap1\n      dup2\n      mstore\n      0x20\n      add\n      0x00\n      keccak256\n        /* \"register_user.sol\":799:831  users[msg.sender].wallet_address */\n      0x05\n      add\n      0x00\n      swap1\n      sload\n      swap1\n      0x0100\n      exp\n      swap1\n      div\n      0xffffffffffffffffffffffffffffffffffffffff\n      and\n        /* \"register_user.sol\":799:845  users[msg.sender].wallet_address == address(0) */\n      0xffffffffffffffffffffffffffffffffffffffff\n      and\n      eq\n        /* \"register_user.sol\":791:871  require(users[msg.sender].wallet_address == address(0) , \"User already exists!\") */\n      tag_42\n      jumpi\n      mload(0x40)\n      0x08c379a000000000000000000000000000000000000000000000000000000000\n      dup2\n      mstore\n      0x04\n      add\n      tag_43\n      swap1\n      tag_44\n      jump\t// in\n    tag_43:\n      mload(0x40)\n      dup1\n      swap2\n      sub\n      swap1\n      revert\n    tag_42:\n        /* \"register_user.sol\":902:1121  User({... */\n      mload(0x40)\n      dup1\n      0xc0\n      add\n      0x40\n      mstore\n      dup1\n        /* \"register_user.sol\":928:933  email */\n      dup7\n        /* \"register_user.sol\":902:1121  User({... */\n      dup2\n      mstore\n      0x20\n      add\n        /* \"register_user.sol\":959:969  first_name */\n      dup6\n        /* \"register_user.sol\":902:1121  User({... */\n      dup2\n      mstore\n      0x20\n      add\n        /* \"register_user.sol\":994:1003  last_name */\n      dup5\n        /* \"register_user.sol\":902:1121  User({... */\n      dup2\n      mstore\n      0x20\n      add\n        /* \"register_user.sol\":1032:1045  house_address */\n      dup4\n        /* \"register_user.sol\":902:1121  User({... */\n      dup2\n      mstore\n      0x20\n      add\n        /* \"register_user.sol\":1065:1069  role */\n      dup3\n        /* \"register_user.sol\":902:1121  User({... */\n      dup2\n      mstore\n      0x20\n      add\n        /* \"register_user.sol\":1099:1109  msg.sender */\n      caller\n        /* \"register_user.sol\":902:1121  User({... */\n      0xffffffffffffffffffffffffffffffffffffffff\n      and\n      dup2\n      mstore\n      pop\n        /* \"register_user.sol\":882:887  users */\n      0x00\n        /* \"register_user.sol\":882:899  users[msg.sender] */\n      dup1\n        /* \"register_user.sol\":888:898  msg.sender */\n      caller\n        /* \"register_user.sol\":882:899  users[msg.sender] */\n      0xffffffffffffffffffffffffffffffffffffffff\n      and\n      0xffffffffffffffffffffffffffffffffffffffff\n      and\n      dup2\n      mstore\n      0x20\n      add\n      swap1\n      dup2\n      mstore\n      0x20\n      add\n      0x00\n      keccak256\n        /* \"register_user.sol\":882:1121  users[msg.sender] = User({... */\n      0x00\n      dup3\n      add\n      mload\n      dup2\n      0x00\n      add\n      swap1\n      dup2\n      tag_45\n      swap2\n      swap1\n      tag_46\n      jump\t// in\n    tag_45:\n      pop\n      0x20\n      dup3\n      add\n      mload\n      dup2\n      0x01\n      add\n      swap1\n      dup2\n      tag_47\n      swap2\n      swap1\n      tag_46\n      jump\t// in\n    tag_47:\n      pop\n      0x40\n      dup3\n      add\n      mload\n      dup2\n      0x02\n      add\n      swap1\n      dup2\n      tag_48\n      swap2\n      swap1\n      tag_46\n      jump\t// in\n    tag_48:\n      pop\n      0x60\n      dup3\n      add\n      mload\n      dup2\n      0x03\n      add\n      swap1\n      dup2\n      tag_49\n      swap2\n      swap1\n      tag_46\n      jump\t// in\n    tag_49:\n      pop\n      0x80\n      dup3\n      add\n      mload\n      dup2\n      0x04\n      add\n      swap1\n      dup2\n      tag_50\n      swap2\n      swap1\n      tag_46\n      jump\t// in\n    tag_50:\n      pop\n      0xa0\n      dup3\n      add\n      mload\n      dup2\n      0x05\n      add\n      exp(0x0100, 0x00)\n      dup2\n      sload\n      dup2\n      0xffffffffffffffffffffffffffffffffffffffff\n      mul\n      not\n      and\n      swap1\n      dup4\n      0xffffffffffffffffffffffffffffffffffffffff\n      and\n      mul\n      or\n      swap1\n      sstore\n      pop\n      swap1\n      pop\n      pop\n        /* \"register_user.sol\":1150:1160  msg.sender */\n      caller\n        /* \"register_user.sol\":1137:1212  userRegistry(msg.sender, email, first_name, last_name, house_address, role) */\n      0xffffffffffffffffffffffffffffffffffffffff\n      and\n      0xaaac58397f8c3230a87dbaff67cde6af946ab191ac161782e4e95226802fdb23\n        /* \"register_user.sol\":1162:1167  email */\n      dup7\n        /* \"register_user.sol\":1169:1179  first_name */\n      dup7\n        /* \"register_user.sol\":1181:1190  last_name */\n      dup7\n        /* \"register_user.sol\":1192:1205  house_address */\n      dup7\n        /* \"register_user.sol\":1207:1211  role */\n      dup7\n        /* \"register_user.sol\":1137:1212  userRegistry(msg.sender, email, first_name, last_name, house_address, role) */\n      mload(0x40)\n      tag_51\n      swap6\n      swap5\n      swap4\n      swap3\n      swap2\n      swap1\n      tag_52\n      jump\t// in\n    tag_51:\n      mload(0x40)\n      dup1\n      swap2\n      sub\n      swap1\n      log2\n        /* \"register_user.sol\":579:1220  function registerUser( ... */\n      pop\n      pop\n      pop\n      pop\n      pop\n      jump\t// out\n        /* \"#utility.yul\":7:82   */\n    tag_53:\n        /* \"#utility.yul\":40:46   */\n      0x00\n        /* \"#utility.yul\":73:75   */\n      0x40\n        /* \"#utility.yul\":67:76   */\n      mload\n        /* \"#utility.yul\":57:76   */\n      swap1\n      pop\n        /* \"#utility.yul\":7:82   */\n      swap1\n      jump\t// out\n        /* \"#utility.yul\":88:205   */\n    tag_54:\n        /* \"#utility.yul\":197:198   */\n      0x00\n        /* \"#utility.yul\":194:195   */\n      dup1\n        /* \"#utility.yul\":187:199   */\n      revert\n        /* \"#utility.yul\":211:328   */\n    tag_55:\n        /* \"#utility.yul\":320:321   */\n      0x00\n        /* \"#utility.yul\":317:318   */\n      dup1\n        /* \"#utility.yul\":310:322   */\n      revert\n        /* \"#utility.yul\":334:460   */\n    tag_56:\n        /* \"#utility.yul\":371:378   */\n      0x00\n        /* \"#utility.yul\":411:453   */\n      0xffffffffffffffffffffffffffffffffffffffff\n        /* \"#utility.yul\":404:409   */\n      dup3\n        /* \"#utility.yul\":400:454   */\n      and\n        /* \"#utility.yul\":389:454   */\n      swap1\n      pop\n        /* \"#utility.yul\":334:460   */\n      swap2\n      swap1\n      pop\n      jump\t// out\n        /* \"#utility.yul\":466:562   */\n    tag_57:\n        /* \"#utility.yul\":503:510   */\n      0x00\n        /* \"#utility.yul\":532:556   */\n      tag_100\n        /* \"#utility.yul\":550:555   */\n      dup3\n        /* \"#utility.yul\":532:556   */\n      tag_56\n      jump\t// in\n    tag_100:\n        /* \"#utility.yul\":521:556   */\n      swap1\n      pop\n        /* \"#utility.yul\":466:562   */\n      swap2\n      swap1\n      pop\n      jump\t// out\n        /* \"#utility.yul\":568:690   */\n    tag_58:\n        /* \"#utility.yul\":641:665   */\n      tag_102\n        /* \"#utility.yul\":659:664   */\n      dup2\n        /* \"#utility.yul\":641:665   */\n      tag_57\n      jump\t// in\n    tag_102:\n        /* \"#utility.yul\":634:639   */\n      dup2\n        /* \"#utility.yul\":631:666   */\n      eq\n        /* \"#utility.yul\":621:684   */\n      tag_103\n      jumpi\n        /* \"#utility.yul\":680:681   */\n      0x00\n        /* \"#utility.yul\":677:678   */\n      dup1\n        /* \"#utility.yul\":670:682   */\n      revert\n        /* \"#utility.yul\":621:684   */\n    tag_103:\n        /* \"#utility.yul\":568:690   */\n      pop\n      jump\t// out\n        /* \"#utility.yul\":696:835   */\n    tag_59:\n        /* \"#utility.yul\":742:747   */\n      0x00\n        /* \"#utility.yul\":780:786   */\n      dup2\n        /* \"#utility.yul\":767:787   */\n      calldataload\n        /* \"#utility.yul\":758:787   */\n      swap1\n      pop\n        /* \"#utility.yul\":796:829   */\n      tag_105\n        /* \"#utility.yul\":823:828   */\n      dup2\n        /* \"#utility.yul\":796:829   */\n      tag_58\n      jump\t// in\n    tag_105:\n        /* \"#utility.yul\":696:835   */\n      swap3\n      swap2\n      pop\n      pop\n      jump\t// out\n        /* \"#utility.yul\":841:1170   */\n    tag_7:\n        /* \"#utility.yul\":900:906   */\n      0x00\n        /* \"#utility.yul\":949:951   */\n      0x20\n        /* \"#utility.yul\":937:946   */\n      dup3\n        /* \"#utility.yul\":928:935   */\n      dup5\n        /* \"#utility.yul\":924:947   */\n      sub\n        /* \"#utility.yul\":920:952   */\n      slt\n        /* \"#utility.yul\":917:1036   */\n      iszero\n      tag_107\n      jumpi\n        /* \"#utility.yul\":955:1034   */\n      tag_108\n      tag_54\n      jump\t// in\n    tag_108:\n        /* \"#utility.yul\":917:1036   */\n    tag_107:\n        /* \"#utility.yul\":1075:1076   */\n      0x00\n        /* \"#utility.yul\":1100:1153   */\n      tag_109\n        /* \"#utility.yul\":1145:1152   */\n      dup5\n        /* \"#utility.yul\":1136:1142   */\n      dup3\n        /* \"#utility.yul\":1125:1134   */\n      dup6\n        /* \"#utility.yul\":1121:1143   */\n      add\n        /* \"#utility.yul\":1100:1153   */\n      tag_59\n      jump\t// in\n    tag_109:\n        /* \"#utility.yul\":1090:1153   */\n      swap2\n      pop\n        /* \"#utility.yul\":1046:1163   */\n      pop\n        /* \"#utility.yul\":841:1170   */\n      swap3\n      swap2\n      pop\n      pop\n      jump\t// out\n        /* \"#utility.yul\":1176:1275   */\n    tag_60:\n        /* \"#utility.yul\":1228:1234   */\n      0x00\n        /* \"#utility.yul\":1262:1267   */\n      dup2\n        /* \"#utility.yul\":1256:1268   */\n      mload\n        /* \"#utility.yul\":1246:1268   */\n      swap1\n      pop\n        /* \"#utility.yul\":1176:1275   */\n      swap2\n      swap1\n      pop\n      jump\t// out\n        /* \"#utility.yul\":1281:1450   */\n    tag_61:\n        /* \"#utility.yul\":1365:1376   */\n      0x00\n        /* \"#utility.yul\":1399:1405   */\n      dup3\n        /* \"#utility.yul\":1394:1397   */\n      dup3\n        /* \"#utility.yul\":1387:1406   */\n      mstore\n        /* \"#utility.yul\":1439:1443   */\n      0x20\n        /* \"#utility.yul\":1434:1437   */\n      dup3\n        /* \"#utility.yul\":1430:1444   */\n      add\n        /* \"#utility.yul\":1415:1444   */\n      swap1\n      pop\n        /* \"#utility.yul\":1281:1450   */\n      swap3\n      swap2\n      pop\n      pop\n      jump\t// out\n        /* \"#utility.yul\":1456:1595   */\n    tag_62:\n        /* \"#utility.yul\":1545:1551   */\n      dup3\n        /* \"#utility.yul\":1540:1543   */\n      dup2\n        /* \"#utility.yul\":1535:1538   */\n      dup4\n        /* \"#utility.yul\":1529:1552   */\n      mcopy\n        /* \"#utility.yul\":1586:1587   */\n      0x00\n        /* \"#utility.yul\":1577:1583   */\n      dup4\n        /* \"#utility.yul\":1572:1575   */\n      dup4\n        /* \"#utility.yul\":1568:1584   */\n      add\n        /* \"#utility.yul\":1561:1588   */\n      mstore\n        /* \"#utility.yul\":1456:1595   */\n      pop\n      pop\n      pop\n      jump\t// out\n        /* \"#utility.yul\":1601:1703   */\n    tag_63:\n        /* \"#utility.yul\":1642:1648   */\n      0x00\n        /* \"#utility.yul\":1693:1695   */\n      0x1f\n        /* \"#utility.yul\":1689:1696   */\n      not\n        /* \"#utility.yul\":1684:1686   */\n      0x1f\n        /* \"#utility.yul\":1677:1682   */\n      dup4\n        /* \"#utility.yul\":1673:1687   */\n      add\n        /* \"#utility.yul\":1669:1697   */\n      and\n        /* \"#utility.yul\":1659:1697   */\n      swap1\n      pop\n        /* \"#utility.yul\":1601:1703   */\n      swap2\n      swap1\n      pop\n      jump\t// out\n        /* \"#utility.yul\":1709:2086   */\n    tag_64:\n        /* \"#utility.yul\":1797:1800   */\n      0x00\n        /* \"#utility.yul\":1825:1864   */\n      tag_115\n        /* \"#utility.yul\":1858:1863   */\n      dup3\n        /* \"#utility.yul\":1825:1864   */\n      tag_60\n      jump\t// in\n    tag_115:\n        /* \"#utility.yul\":1880:1951   */\n      tag_116\n        /* \"#utility.yul\":1944:1950   */\n      dup2\n        /* \"#utility.yul\":1939:1942   */\n      dup6\n        /* \"#utility.yul\":1880:1951   */\n      tag_61\n      jump\t// in\n    tag_116:\n        /* \"#utility.yul\":1873:1951   */\n      swap4\n      pop\n        /* \"#utility.yul\":1960:2025   */\n      tag_117\n        /* \"#utility.yul\":2018:2024   */\n      dup2\n        /* \"#utility.yul\":2013:2016   */\n      dup6\n        /* \"#utility.yul\":2006:2010   */\n      0x20\n        /* \"#utility.yul\":1999:2004   */\n      dup7\n        /* \"#utility.yul\":1995:2011   */\n      add\n        /* \"#utility.yul\":1960:2025   */\n      tag_62\n      jump\t// in\n    tag_117:\n        /* \"#utility.yul\":2050:2079   */\n      tag_118\n        /* \"#utility.yul\":2072:2078   */\n      dup2\n        /* \"#utility.yul\":2050:2079   */\n      tag_63\n      jump\t// in\n    tag_118:\n        /* \"#utility.yul\":2045:2048   */\n      dup5\n        /* \"#utility.yul\":2041:2080   */\n      add\n        /* \"#utility.yul\":2034:2080   */\n      swap2\n      pop\n        /* \"#utility.yul\":1801:2086   */\n      pop\n        /* \"#utility.yul\":1709:2086   */\n      swap3\n      swap2\n      pop\n      pop\n      jump\t// out\n        /* \"#utility.yul\":2092:2210   */\n    tag_65:\n        /* \"#utility.yul\":2179:2203   */\n      tag_120\n        /* \"#utility.yul\":2197:2202   */\n      dup2\n        /* \"#utility.yul\":2179:2203   */\n      tag_57\n      jump\t// in\n    tag_120:\n        /* \"#utility.yul\":2174:2177   */\n      dup3\n        /* \"#utility.yul\":2167:2204   */\n      mstore\n        /* \"#utility.yul\":2092:2210   */\n      pop\n      pop\n      jump\t// out\n        /* \"#utility.yul\":2216:3446   */\n    tag_10:\n        /* \"#utility.yul\":2549:2553   */\n      0x00\n        /* \"#utility.yul\":2587:2590   */\n      0xc0\n        /* \"#utility.yul\":2576:2585   */\n      dup3\n        /* \"#utility.yul\":2572:2591   */\n      add\n        /* \"#utility.yul\":2564:2591   */\n      swap1\n      pop\n        /* \"#utility.yul\":2637:2646   */\n      dup2\n        /* \"#utility.yul\":2631:2635   */\n      dup2\n        /* \"#utility.yul\":2627:2647   */\n      sub\n        /* \"#utility.yul\":2623:2624   */\n      0x00\n        /* \"#utility.yul\":2612:2621   */\n      dup4\n        /* \"#utility.yul\":2608:2625   */\n      add\n        /* \"#utility.yul\":2601:2648   */\n      mstore\n        /* \"#utility.yul\":2665:2743   */\n      tag_122\n        /* \"#utility.yul\":2738:2742   */\n      dup2\n        /* \"#utility.yul\":2729:2735   */\n      dup10\n        /* \"#utility.yul\":2665:2743   */\n      tag_64\n      jump\t// in\n    tag_122:\n        /* \"#utility.yul\":2657:2743   */\n      swap1\n      pop\n        /* \"#utility.yul\":2790:2799   */\n      dup2\n        /* \"#utility.yul\":2784:2788   */\n      dup2\n        /* \"#utility.yul\":2780:2800   */\n      sub\n        /* \"#utility.yul\":2775:2777   */\n      0x20\n        /* \"#utility.yul\":2764:2773   */\n      dup4\n        /* \"#utility.yul\":2760:2778   */\n      add\n        /* \"#utility.yul\":2753:2801   */\n      mstore\n        /* \"#utility.yul\":2818:2896   */\n      tag_123\n        /* \"#utility.yul\":2891:2895   */\n      dup2\n        /* \"#utility.yul\":2882:2888   */\n      dup9\n        /* \"#utility.yul\":2818:2896   */\n      tag_64\n      jump\t// in\n    tag_123:\n        /* \"#utility.yul\":2810:2896   */\n      swap1\n      pop\n        /* \"#utility.yul\":2943:2952   */\n      dup2\n        /* \"#utility.yul\":2937:2941   */\n      dup2\n        /* \"#utility.yul\":2933:2953   */\n      sub\n        /* \"#utility.yul\":2928:2930   */\n      0x40\n        /* \"#utility.yul\":2917:2926   */\n      dup4\n        /* \"#utility.yul\":2913:2931   */\n      add\n        /* \"#utility.yul\":2906:2954   */\n      mstore\n        /* \"#utility.yul\":2971:3049   */\n      tag_124\n        /* \"#utility.yul\":3044:3048   */\n      dup2\n        /* \"#utility.yul\":3035:3041   */\n      dup8\n        /* \"#utility.yul\":2971:3049   */\n      tag_64\n      jump\t// in\n    tag_124:\n        /* \"#utility.yul\":2963:3049   */\n      swap1\n      pop\n        /* \"#utility.yul\":3096:3105   */\n      dup2\n        /* \"#utility.yul\":3090:3094   */\n      dup2\n        /* \"#utility.yul\":3086:3106   */\n      sub\n        /* \"#utility.yul\":3081:3083   */\n      0x60\n        /* \"#utility.yul\":3070:3079   */\n      dup4\n        /* \"#utility.yul\":3066:3084   */\n      add\n        /* \"#utility.yul\":3059:3107   */\n      mstore\n        /* \"#utility.yul\":3124:3202   */\n      tag_125\n        /* \"#utility.yul\":3197:3201   */\n      dup2\n        /* \"#utility.yul\":3188:3194   */\n      dup7\n        /* \"#utility.yul\":3124:3202   */\n      tag_64\n      jump\t// in\n    tag_125:\n        /* \"#utility.yul\":3116:3202   */\n      swap1\n      pop\n        /* \"#utility.yul\":3250:3259   */\n      dup2\n        /* \"#utility.yul\":3244:3248   */\n      dup2\n        /* \"#utility.yul\":3240:3260   */\n      sub\n        /* \"#utility.yul\":3234:3237   */\n      0x80\n        /* \"#utility.yul\":3223:3232   */\n      dup4\n        /* \"#utility.yul\":3219:3238   */\n      add\n        /* \"#utility.yul\":3212:3261   */\n      mstore\n        /* \"#utility.yul\":3278:3356   */\n      tag_126\n        /* \"#utility.yul\":3351:3355   */\n      dup2\n        /* \"#utility.yul\":3342:3348   */\n      dup6\n        /* \"#utility.yul\":3278:3356   */\n      tag_64\n      jump\t// in\n    tag_126:\n        /* \"#utility.yul\":3270:3356   */\n      swap1\n      pop\n        /* \"#utility.yul\":3366:3439   */\n      tag_127\n        /* \"#utility.yul\":3434:3437   */\n      0xa0\n        /* \"#utility.yul\":3423:3432   */\n      dup4\n        /* \"#utility.yul\":3419:3438   */\n      add\n        /* \"#utility.yul\":3410:3416   */\n      dup5\n        /* \"#utility.yul\":3366:3439   */\n      tag_65\n      jump\t// in\n    tag_127:\n        /* \"#utility.yul\":2216:3446   */\n      swap8\n      swap7\n      pop\n      pop\n      pop\n      pop\n      pop\n      pop\n      pop\n      jump\t// out\n        /* \"#utility.yul\":3452:3569   */\n    tag_66:\n        /* \"#utility.yul\":3561:3562   */\n      0x00\n        /* \"#utility.yul\":3558:3559   */\n      dup1\n        /* \"#utility.yul\":3551:3563   */\n      revert\n        /* \"#utility.yul\":3575:3692   */\n    tag_67:\n        /* \"#utility.yul\":3684:3685   */\n      0x00\n        /* \"#utility.yul\":3681:3682   */\n      dup1\n        /* \"#utility.yul\":3674:3686   */\n      revert\n        /* \"#utility.yul\":3698:3878   */\n    tag_68:\n        /* \"#utility.yul\":3746:3823   */\n      0x4e487b7100000000000000000000000000000000000000000000000000000000\n        /* \"#utility.yul\":3743:3744   */\n      0x00\n        /* \"#utility.yul\":3736:3824   */\n      mstore\n        /* \"#utility.yul\":3843:3847   */\n      0x41\n        /* \"#utility.yul\":3840:3841   */\n      0x04\n        /* \"#utility.yul\":3833:3848   */\n      mstore\n        /* \"#utility.yul\":3867:3871   */\n      0x24\n        /* \"#utility.yul\":3864:3865   */\n      0x00\n        /* \"#utility.yul\":3857:3872   */\n      revert\n        /* \"#utility.yul\":3884:4165   */\n    tag_69:\n        /* \"#utility.yul\":3967:3994   */\n      tag_132\n        /* \"#utility.yul\":3989:3993   */\n      dup3\n        /* \"#utility.yul\":3967:3994   */\n      tag_63\n      jump\t// in\n    tag_132:\n        /* \"#utility.yul\":3959:3965   */\n      dup2\n        /* \"#utility.yul\":3955:3995   */\n      add\n        /* \"#utility.yul\":4097:4103   */\n      dup2\n        /* \"#utility.yul\":4085:4095   */\n      dup2\n        /* \"#utility.yul\":4082:4104   */\n      lt\n        /* \"#utility.yul\":4061:4079   */\n      0xffffffffffffffff\n        /* \"#utility.yul\":4049:4059   */\n      dup3\n        /* \"#utility.yul\":4046:4080   */\n      gt\n        /* \"#utility.yul\":4043:4105   */\n      or\n        /* \"#utility.yul\":4040:4128   */\n      iszero\n      tag_133\n      jumpi\n        /* \"#utility.yul\":4108:4126   */\n      tag_134\n      tag_68\n      jump\t// in\n    tag_134:\n        /* \"#utility.yul\":4040:4128   */\n    tag_133:\n        /* \"#utility.yul\":4148:4158   */\n      dup1\n        /* \"#utility.yul\":4144:4146   */\n      0x40\n        /* \"#utility.yul\":4137:4159   */\n      mstore\n        /* \"#utility.yul\":3927:4165   */\n      pop\n        /* \"#utility.yul\":3884:4165   */\n      pop\n      pop\n      jump\t// out\n        /* \"#utility.yul\":4171:4300   */\n    tag_70:\n        /* \"#utility.yul\":4205:4211   */\n      0x00\n        /* \"#utility.yul\":4232:4252   */\n      tag_136\n      tag_53\n      jump\t// in\n    tag_136:\n        /* \"#utility.yul\":4222:4252   */\n      swap1\n      pop\n        /* \"#utility.yul\":4261:4294   */\n      tag_137\n        /* \"#utility.yul\":4289:4293   */\n      dup3\n        /* \"#utility.yul\":4281:4287   */\n      dup3\n        /* \"#utility.yul\":4261:4294   */\n      tag_69\n      jump\t// in\n    tag_137:\n        /* \"#utility.yul\":4171:4300   */\n      swap2\n      swap1\n      pop\n      jump\t// out\n        /* \"#utility.yul\":4306:4614   */\n    tag_71:\n        /* \"#utility.yul\":4368:4372   */\n      0x00\n        /* \"#utility.yul\":4458:4476   */\n      0xffffffffffffffff\n        /* \"#utility.yul\":4450:4456   */\n      dup3\n        /* \"#utility.yul\":4447:4477   */\n      gt\n        /* \"#utility.yul\":4444:4500   */\n      iszero\n      tag_139\n      jumpi\n        /* \"#utility.yul\":4480:4498   */\n      tag_140\n      tag_68\n      jump\t// in\n    tag_140:\n        /* \"#utility.yul\":4444:4500   */\n    tag_139:\n        /* \"#utility.yul\":4518:4547   */\n      tag_141\n        /* \"#utility.yul\":4540:4546   */\n      dup3\n        /* \"#utility.yul\":4518:4547   */\n      tag_63\n      jump\t// in\n    tag_141:\n        /* \"#utility.yul\":4510:4547   */\n      swap1\n      pop\n        /* \"#utility.yul\":4602:4606   */\n      0x20\n        /* \"#utility.yul\":4596:4600   */\n      dup2\n        /* \"#utility.yul\":4592:4607   */\n      add\n        /* \"#utility.yul\":4584:4607   */\n      swap1\n      pop\n        /* \"#utility.yul\":4306:4614   */\n      swap2\n      swap1\n      pop\n      jump\t// out\n        /* \"#utility.yul\":4620:4768   */\n    tag_72:\n        /* \"#utility.yul\":4718:4724   */\n      dup3\n        /* \"#utility.yul\":4713:4716   */\n      dup2\n        /* \"#utility.yul\":4708:4711   */\n      dup4\n        /* \"#utility.yul\":4695:4725   */\n      calldatacopy\n        /* \"#utility.yul\":4759:4760   */\n      0x00\n        /* \"#utility.yul\":4750:4756   */\n      dup4\n        /* \"#utility.yul\":4745:4748   */\n      dup4\n        /* \"#utility.yul\":4741:4757   */\n      add\n        /* \"#utility.yul\":4734:4761   */\n      mstore\n        /* \"#utility.yul\":4620:4768   */\n      pop\n      pop\n      pop\n      jump\t// out\n        /* \"#utility.yul\":4774:5199   */\n    tag_73:\n        /* \"#utility.yul\":4852:4857   */\n      0x00\n        /* \"#utility.yul\":4877:4943   */\n      tag_144\n        /* \"#utility.yul\":4893:4942   */\n      tag_145\n        /* \"#utility.yul\":4935:4941   */\n      dup5\n        /* \"#utility.yul\":4893:4942   */\n      tag_71\n      jump\t// in\n    tag_145:\n        /* \"#utility.yul\":4877:4943   */\n      tag_70\n      jump\t// in\n    tag_144:\n        /* \"#utility.yul\":4868:4943   */\n      swap1\n      pop\n        /* \"#utility.yul\":4966:4972   */\n      dup3\n        /* \"#utility.yul\":4959:4964   */\n      dup2\n        /* \"#utility.yul\":4952:4973   */\n      mstore\n        /* \"#utility.yul\":5004:5008   */\n      0x20\n        /* \"#utility.yul\":4997:5002   */\n      dup2\n        /* \"#utility.yul\":4993:5009   */\n      add\n        /* \"#utility.yul\":5042:5045   */\n      dup5\n        /* \"#utility.yul\":5033:5039   */\n      dup5\n        /* \"#utility.yul\":5028:5031   */\n      dup5\n        /* \"#utility.yul\":5024:5040   */\n      add\n        /* \"#utility.yul\":5021:5046   */\n      gt\n        /* \"#utility.yul\":5018:5130   */\n      iszero\n      tag_146\n      jumpi\n        /* \"#utility.yul\":5049:5128   */\n      tag_147\n      tag_67\n      jump\t// in\n    tag_147:\n        /* \"#utility.yul\":5018:5130   */\n    tag_146:\n        /* \"#utility.yul\":5139:5193   */\n      tag_148\n        /* \"#utility.yul\":5186:5192   */\n      dup5\n        /* \"#utility.yul\":5181:5184   */\n      dup3\n        /* \"#utility.yul\":5176:5179   */\n      dup6\n        /* \"#utility.yul\":5139:5193   */\n      tag_72\n      jump\t// in\n    tag_148:\n        /* \"#utility.yul\":4858:5199   */\n      pop\n        /* \"#utility.yul\":4774:5199   */\n      swap4\n      swap3\n      pop\n      pop\n      pop\n      jump\t// out\n        /* \"#utility.yul\":5219:5559   */\n    tag_74:\n        /* \"#utility.yul\":5275:5280   */\n      0x00\n        /* \"#utility.yul\":5324:5327   */\n      dup3\n        /* \"#utility.yul\":5317:5321   */\n      0x1f\n        /* \"#utility.yul\":5309:5315   */\n      dup4\n        /* \"#utility.yul\":5305:5322   */\n      add\n        /* \"#utility.yul\":5301:5328   */\n      slt\n        /* \"#utility.yul\":5291:5413   */\n      tag_150\n      jumpi\n        /* \"#utility.yul\":5332:5411   */\n      tag_151\n      tag_66\n      jump\t// in\n    tag_151:\n        /* \"#utility.yul\":5291:5413   */\n    tag_150:\n        /* \"#utility.yul\":5449:5455   */\n      dup2\n        /* \"#utility.yul\":5436:5456   */\n      calldataload\n        /* \"#utility.yul\":5474:5553   */\n      tag_152\n        /* \"#utility.yul\":5549:5552   */\n      dup5\n        /* \"#utility.yul\":5541:5547   */\n      dup3\n        /* \"#utility.yul\":5534:5538   */\n      0x20\n        /* \"#utility.yul\":5526:5532   */\n      dup7\n        /* \"#utility.yul\":5522:5539   */\n      add\n        /* \"#utility.yul\":5474:5553   */\n      tag_73\n      jump\t// in\n    tag_152:\n        /* \"#utility.yul\":5465:5553   */\n      swap2\n      pop\n        /* \"#utility.yul\":5281:5559   */\n      pop\n        /* \"#utility.yul\":5219:5559   */\n      swap3\n      swap2\n      pop\n      pop\n      jump\t// out\n        /* \"#utility.yul\":5565:7376   */\n    tag_13:\n        /* \"#utility.yul\":5710:5716   */\n      0x00\n        /* \"#utility.yul\":5718:5724   */\n      dup1\n        /* \"#utility.yul\":5726:5732   */\n      0x00\n        /* \"#utility.yul\":5734:5740   */\n      dup1\n        /* \"#utility.yul\":5742:5748   */\n      0x00\n        /* \"#utility.yul\":5791:5794   */\n      0xa0\n        /* \"#utility.yul\":5779:5788   */\n      dup7\n        /* \"#utility.yul\":5770:5777   */\n      dup9\n        /* \"#utility.yul\":5766:5789   */\n      sub\n        /* \"#utility.yul\":5762:5795   */\n      slt\n        /* \"#utility.yul\":5759:5879   */\n      iszero\n      tag_154\n      jumpi\n        /* \"#utility.yul\":5798:5877   */\n      tag_155\n      tag_54\n      jump\t// in\n    tag_155:\n        /* \"#utility.yul\":5759:5879   */\n    tag_154:\n        /* \"#utility.yul\":5946:5947   */\n      0x00\n        /* \"#utility.yul\":5935:5944   */\n      dup7\n        /* \"#utility.yul\":5931:5948   */\n      add\n        /* \"#utility.yul\":5918:5949   */\n      calldataload\n        /* \"#utility.yul\":5976:5994   */\n      0xffffffffffffffff\n        /* \"#utility.yul\":5968:5974   */\n      dup2\n        /* \"#utility.yul\":5965:5995   */\n      gt\n        /* \"#utility.yul\":5962:6079   */\n      iszero\n      tag_156\n      jumpi\n        /* \"#utility.yul\":5998:6077   */\n      tag_157\n      tag_55\n      jump\t// in\n    tag_157:\n        /* \"#utility.yul\":5962:6079   */\n    tag_156:\n        /* \"#utility.yul\":6103:6166   */\n      tag_158\n        /* \"#utility.yul\":6158:6165   */\n      dup9\n        /* \"#utility.yul\":6149:6155   */\n      dup3\n        /* \"#utility.yul\":6138:6147   */\n      dup10\n        /* \"#utility.yul\":6134:6156   */\n      add\n        /* \"#utility.yul\":6103:6166   */\n      tag_74\n      jump\t// in\n    tag_158:\n        /* \"#utility.yul\":6093:6166   */\n      swap6\n      pop\n        /* \"#utility.yul\":5889:6176   */\n      pop\n        /* \"#utility.yul\":6243:6245   */\n      0x20\n        /* \"#utility.yul\":6232:6241   */\n      dup7\n        /* \"#utility.yul\":6228:6246   */\n      add\n        /* \"#utility.yul\":6215:6247   */\n      calldataload\n        /* \"#utility.yul\":6274:6292   */\n      0xffffffffffffffff\n        /* \"#utility.yul\":6266:6272   */\n      dup2\n        /* \"#utility.yul\":6263:6293   */\n      gt\n        /* \"#utility.yul\":6260:6377   */\n      iszero\n      tag_159\n      jumpi\n        /* \"#utility.yul\":6296:6375   */\n      tag_160\n      tag_55\n      jump\t// in\n    tag_160:\n        /* \"#utility.yul\":6260:6377   */\n    tag_159:\n        /* \"#utility.yul\":6401:6464   */\n      tag_161\n        /* \"#utility.yul\":6456:6463   */\n      dup9\n        /* \"#utility.yul\":6447:6453   */\n      dup3\n        /* \"#utility.yul\":6436:6445   */\n      dup10\n        /* \"#utility.yul\":6432:6454   */\n      add\n        /* \"#utility.yul\":6401:6464   */\n      tag_74\n      jump\t// in\n    tag_161:\n        /* \"#utility.yul\":6391:6464   */\n      swap5\n      pop\n        /* \"#utility.yul\":6186:6474   */\n      pop\n        /* \"#utility.yul\":6541:6543   */\n      0x40\n        /* \"#utility.yul\":6530:6539   */\n      dup7\n        /* \"#utility.yul\":6526:6544   */\n      add\n        /* \"#utility.yul\":6513:6545   */\n      calldataload\n        /* \"#utility.yul\":6572:6590   */\n      0xffffffffffffffff\n        /* \"#utility.yul\":6564:6570   */\n      dup2\n        /* \"#utility.yul\":6561:6591   */\n      gt\n        /* \"#utility.yul\":6558:6675   */\n      iszero\n      tag_162\n      jumpi\n        /* \"#utility.yul\":6594:6673   */\n      tag_163\n      tag_55\n      jump\t// in\n    tag_163:\n        /* \"#utility.yul\":6558:6675   */\n    tag_162:\n        /* \"#utility.yul\":6699:6762   */\n      tag_164\n        /* \"#utility.yul\":6754:6761   */\n      dup9\n        /* \"#utility.yul\":6745:6751   */\n      dup3\n        /* \"#utility.yul\":6734:6743   */\n      dup10\n        /* \"#utility.yul\":6730:6752   */\n      add\n        /* \"#utility.yul\":6699:6762   */\n      tag_74\n      jump\t// in\n    tag_164:\n        /* \"#utility.yul\":6689:6762   */\n      swap4\n      pop\n        /* \"#utility.yul\":6484:6772   */\n      pop\n        /* \"#utility.yul\":6839:6841   */\n      0x60\n        /* \"#utility.yul\":6828:6837   */\n      dup7\n        /* \"#utility.yul\":6824:6842   */\n      add\n        /* \"#utility.yul\":6811:6843   */\n      calldataload\n        /* \"#utility.yul\":6870:6888   */\n      0xffffffffffffffff\n        /* \"#utility.yul\":6862:6868   */\n      dup2\n        /* \"#utility.yul\":6859:6889   */\n      gt\n        /* \"#utility.yul\":6856:6973   */\n      iszero\n      tag_165\n      jumpi\n        /* \"#utility.yul\":6892:6971   */\n      tag_166\n      tag_55\n      jump\t// in\n    tag_166:\n        /* \"#utility.yul\":6856:6973   */\n    tag_165:\n        /* \"#utility.yul\":6997:7060   */\n      tag_167\n        /* \"#utility.yul\":7052:7059   */\n      dup9\n        /* \"#utility.yul\":7043:7049   */\n      dup3\n        /* \"#utility.yul\":7032:7041   */\n      dup10\n        /* \"#utility.yul\":7028:7050   */\n      add\n        /* \"#utility.yul\":6997:7060   */\n      tag_74\n      jump\t// in\n    tag_167:\n        /* \"#utility.yul\":6987:7060   */\n      swap3\n      pop\n        /* \"#utility.yul\":6782:7070   */\n      pop\n        /* \"#utility.yul\":7137:7140   */\n      0x80\n        /* \"#utility.yul\":7126:7135   */\n      dup7\n        /* \"#utility.yul\":7122:7141   */\n      add\n        /* \"#utility.yul\":7109:7142   */\n      calldataload\n        /* \"#utility.yul\":7169:7187   */\n      0xffffffffffffffff\n        /* \"#utility.yul\":7161:7167   */\n      dup2\n        /* \"#utility.yul\":7158:7188   */\n      gt\n        /* \"#utility.yul\":7155:7272   */\n      iszero\n      tag_168\n      jumpi\n        /* \"#utility.yul\":7191:7270   */\n      tag_169\n      tag_55\n      jump\t// in\n    tag_169:\n        /* \"#utility.yul\":7155:7272   */\n    tag_168:\n        /* \"#utility.yul\":7296:7359   */\n      tag_170\n        /* \"#utility.yul\":7351:7358   */\n      dup9\n        /* \"#utility.yul\":7342:7348   */\n      dup3\n        /* \"#utility.yul\":7331:7340   */\n      dup10\n        /* \"#utility.yul\":7327:7349   */\n      add\n        /* \"#utility.yul\":7296:7359   */\n      tag_74\n      jump\t// in\n    tag_170:\n        /* \"#utility.yul\":7286:7359   */\n      swap2\n      pop\n        /* \"#utility.yul\":7080:7369   */\n      pop\n        /* \"#utility.yul\":5565:7376   */\n      swap3\n      swap6\n      pop\n      swap3\n      swap6\n      swap1\n      swap4\n      pop\n      jump\t// out\n        /* \"#utility.yul\":7382:7562   */\n    tag_75:\n        /* \"#utility.yul\":7430:7507   */\n      0x4e487b7100000000000000000000000000000000000000000000000000000000\n        /* \"#utility.yul\":7427:7428   */\n      0x00\n        /* \"#utility.yul\":7420:7508   */\n      mstore\n        /* \"#utility.yul\":7527:7531   */\n      0x22\n        /* \"#utility.yul\":7524:7525   */\n      0x04\n        /* \"#utility.yul\":7517:7532   */\n      mstore\n        /* \"#utility.yul\":7551:7555   */\n      0x24\n        /* \"#utility.yul\":7548:7549   */\n      0x00\n        /* \"#utility.yul\":7541:7556   */\n      revert\n        /* \"#utility.yul\":7568:7888   */\n    tag_16:\n        /* \"#utility.yul\":7612:7618   */\n      0x00\n        /* \"#utility.yul\":7649:7650   */\n      0x02\n        /* \"#utility.yul\":7643:7647   */\n      dup3\n        /* \"#utility.yul\":7639:7651   */\n      div\n        /* \"#utility.yul\":7629:7651   */\n      swap1\n      pop\n        /* \"#utility.yul\":7696:7697   */\n      0x01\n        /* \"#utility.yul\":7690:7694   */\n      dup3\n        /* \"#utility.yul\":7686:7698   */\n      and\n        /* \"#utility.yul\":7717:7735   */\n      dup1\n        /* \"#utility.yul\":7707:7788   */\n      tag_173\n      jumpi\n        /* \"#utility.yul\":7773:7777   */\n      0x7f\n        /* \"#utility.yul\":7765:7771   */\n      dup3\n        /* \"#utility.yul\":7761:7778   */\n      and\n        /* \"#utility.yul\":7751:7778   */\n      swap2\n      pop\n        /* \"#utility.yul\":7707:7788   */\n    tag_173:\n        /* \"#utility.yul\":7835:7837   */\n      0x20\n        /* \"#utility.yul\":7827:7833   */\n      dup3\n        /* \"#utility.yul\":7824:7838   */\n      lt\n        /* \"#utility.yul\":7804:7822   */\n      dup2\n        /* \"#utility.yul\":7801:7839   */\n      sub\n        /* \"#utility.yul\":7798:7882   */\n      tag_174\n      jumpi\n        /* \"#utility.yul\":7854:7872   */\n      tag_175\n      tag_75\n      jump\t// in\n    tag_175:\n        /* \"#utility.yul\":7798:7882   */\n    tag_174:\n        /* \"#utility.yul\":7619:7888   */\n      pop\n        /* \"#utility.yul\":7568:7888   */\n      swap2\n      swap1\n      pop\n      jump\t// out\n        /* \"#utility.yul\":7894:8064   */\n    tag_76:\n        /* \"#utility.yul\":8034:8056   */\n      0x5573657220616c72656164792065786973747321000000000000000000000000\n        /* \"#utility.yul\":8030:8031   */\n      0x00\n        /* \"#utility.yul\":8022:8028   */\n      dup3\n        /* \"#utility.yul\":8018:8032   */\n      add\n        /* \"#utility.yul\":8011:8057   */\n      mstore\n        /* \"#utility.yul\":7894:8064   */\n      pop\n      jump\t// out\n        /* \"#utility.yul\":8070:8436   */\n    tag_77:\n        /* \"#utility.yul\":8212:8215   */\n      0x00\n        /* \"#utility.yul\":8233:8300   */\n      tag_178\n        /* \"#utility.yul\":8297:8299   */\n      0x14\n        /* \"#utility.yul\":8292:8295   */\n      dup4\n        /* \"#utility.yul\":8233:8300   */\n      tag_61\n      jump\t// in\n    tag_178:\n        /* \"#utility.yul\":8226:8300   */\n      swap2\n      pop\n        /* \"#utility.yul\":8309:8402   */\n      tag_179\n        /* \"#utility.yul\":8398:8401   */\n      dup3\n        /* \"#utility.yul\":8309:8402   */\n      tag_76\n      jump\t// in\n    tag_179:\n        /* \"#utility.yul\":8427:8429   */\n      0x20\n        /* \"#utility.yul\":8422:8425   */\n      dup3\n        /* \"#utility.yul\":8418:8430   */\n      add\n        /* \"#utility.yul\":8411:8430   */\n      swap1\n      pop\n        /* \"#utility.yul\":8070:8436   */\n      swap2\n      swap1\n      pop\n      jump\t// out\n        /* \"#utility.yul\":8442:8861   */\n    tag_44:\n        /* \"#utility.yul\":8608:8612   */\n      0x00\n        /* \"#utility.yul\":8646:8648   */\n      0x20\n        /* \"#utility.yul\":8635:8644   */\n      dup3\n        /* \"#utility.yul\":8631:8649   */\n      add\n        /* \"#utility.yul\":8623:8649   */\n      swap1\n      pop\n        /* \"#utility.yul\":8695:8704   */\n      dup2\n        /* \"#utility.yul\":8689:8693   */\n      dup2\n        /* \"#utility.yul\":8685:8705   */\n      sub\n        /* \"#utility.yul\":8681:8682   */\n      0x00\n        /* \"#utility.yul\":8670:8679   */\n      dup4\n        /* \"#utility.yul\":8666:8683   */\n      add\n        /* \"#utility.yul\":8659:8706   */\n      mstore\n        /* \"#utility.yul\":8723:8854   */\n      tag_181\n        /* \"#utility.yul\":8849:8853   */\n      dup2\n        /* \"#utility.yul\":8723:8854   */\n      tag_77\n      jump\t// in\n    tag_181:\n        /* \"#utility.yul\":8715:8854   */\n      swap1\n      pop\n        /* \"#utility.yul\":8442:8861   */\n      swap2\n      swap1\n      pop\n      jump\t// out\n        /* \"#utility.yul\":8867:9008   */\n    tag_78:\n        /* \"#utility.yul\":8916:8920   */\n      0x00\n        /* \"#utility.yul\":8939:8942   */\n      dup2\n        /* \"#utility.yul\":8931:8942   */\n      swap1\n      pop\n        /* \"#utility.yul\":8962:8965   */\n      dup2\n        /* \"#utility.yul\":8959:8960   */\n      0x00\n        /* \"#utility.yul\":8952:8966   */\n      mstore\n        /* \"#utility.yul\":8996:9000   */\n      0x20\n        /* \"#utility.yul\":8993:8994   */\n      0x00\n        /* \"#utility.yul\":8983:9001   */\n      keccak256\n        /* \"#utility.yul\":8975:9001   */\n      swap1\n      pop\n        /* \"#utility.yul\":8867:9008   */\n      swap2\n      swap1\n      pop\n      jump\t// out\n        /* \"#utility.yul\":9014:9107   */\n    tag_79:\n        /* \"#utility.yul\":9051:9057   */\n      0x00\n        /* \"#utility.yul\":9098:9100   */\n      0x20\n        /* \"#utility.yul\":9093:9095   */\n      0x1f\n        /* \"#utility.yul\":9086:9091   */\n      dup4\n        /* \"#utility.yul\":9082:9096   */\n      add\n        /* \"#utility.yul\":9078:9101   */\n      div\n        /* \"#utility.yul\":9068:9101   */\n      swap1\n      pop\n        /* \"#utility.yul\":9014:9107   */\n      swap2\n      swap1\n      pop\n      jump\t// out\n        /* \"#utility.yul\":9113:9220   */\n    tag_80:\n        /* \"#utility.yul\":9157:9165   */\n      0x00\n        /* \"#utility.yul\":9207:9212   */\n      dup3\n        /* \"#utility.yul\":9201:9205   */\n      dup3\n        /* \"#utility.yul\":9197:9213   */\n      shl\n        /* \"#utility.yul\":9176:9213   */\n      swap1\n      pop\n        /* \"#utility.yul\":9113:9220   */\n      swap3\n      swap2\n      pop\n      pop\n      jump\t// out\n        /* \"#utility.yul\":9226:9619   */\n    tag_81:\n        /* \"#utility.yul\":9295:9301   */\n      0x00\n        /* \"#utility.yul\":9345:9346   */\n      0x08\n        /* \"#utility.yul\":9333:9343   */\n      dup4\n        /* \"#utility.yul\":9329:9347   */\n      mul\n        /* \"#utility.yul\":9368:9465   */\n      tag_186\n        /* \"#utility.yul\":9398:9464   */\n      0xffffffffffffffffffffffffffffffffffffffffffffffffffffffffffffffff\n        /* \"#utility.yul\":9387:9396   */\n      dup3\n        /* \"#utility.yul\":9368:9465   */\n      tag_80\n      jump\t// in\n    tag_186:\n        /* \"#utility.yul\":9486:9525   */\n      tag_187\n        /* \"#utility.yul\":9516:9524   */\n      dup7\n        /* \"#utility.yul\":9505:9514   */\n      dup4\n        /* \"#utility.yul\":9486:9525   */\n      tag_80\n      jump\t// in\n    tag_187:\n        /* \"#utility.yul\":9474:9525   */\n      swap6\n      pop\n        /* \"#utility.yul\":9558:9562   */\n      dup1\n        /* \"#utility.yul\":9554:9563   */\n      not\n        /* \"#utility.yul\":9547:9552   */\n      dup5\n        /* \"#utility.yul\":9543:9564   */\n      and\n        /* \"#utility.yul\":9534:9564   */\n      swap4\n      pop\n        /* \"#utility.yul\":9607:9611   */\n      dup1\n        /* \"#utility.yul\":9597:9605   */\n      dup7\n        /* \"#utility.yul\":9593:9612   */\n      and\n        /* \"#utility.yul\":9586:9591   */\n      dup5\n        /* \"#utility.yul\":9583:9613   */\n      or\n        /* \"#utility.yul\":9573:9613   */\n      swap3\n      pop\n        /* \"#utility.yul\":9302:9619   */\n      pop\n      pop\n        /* \"#utility.yul\":9226:9619   */\n      swap4\n      swap3\n      pop\n      pop\n      pop\n      jump\t// out\n        /* \"#utility.yul\":9625:9702   */\n    tag_82:\n        /* \"#utility.yul\":9662:9669   */\n      0x00\n        /* \"#utility.yul\":9691:9696   */\n      dup2\n        /* \"#utility.yul\":9680:9696   */\n      swap1\n      pop\n        /* \"#utility.yul\":9625:9702   */\n      swap2\n      swap1\n      pop\n      jump\t// out\n        /* \"#utility.yul\":9708:9768   */\n    tag_83:\n        /* \"#utility.yul\":9736:9739   */\n      0x00\n        /* \"#utility.yul\":9757:9762   */\n      dup2\n        /* \"#utility.yul\":9750:9762   */\n      swap1\n      pop\n        /* \"#utility.yul\":9708:9768   */\n      swap2\n      swap1\n      pop\n      jump\t// out\n        /* \"#utility.yul\":9774:9916   */\n    tag_84:\n        /* \"#utility.yul\":9824:9833   */\n      0x00\n        /* \"#utility.yul\":9857:9910   */\n      tag_191\n        /* \"#utility.yul\":9875:9909   */\n      tag_192\n        /* \"#utility.yul\":9884:9908   */\n      tag_193\n        /* \"#utility.yul\":9902:9907   */\n      dup5\n        /* \"#utility.yul\":9884:9908   */\n      tag_82\n      jump\t// in\n    tag_193:\n        /* \"#utility.yul\":9875:9909   */\n      tag_83\n      jump\t// in\n    tag_192:\n        /* \"#utility.yul\":9857:9910   */\n      tag_82\n      jump\t// in\n    tag_191:\n        /* \"#utility.yul\":9844:9910   */\n      swap1\n      pop\n        /* \"#utility.yul\":9774:9916   */\n      swap2\n      swap1\n      pop\n      jump\t// out\n        /* \"#utility.yul\":9922:9997   */\n    tag_85:\n        /* \"#utility.yul\":9965:9968   */\n      0x00\n        /* \"#utility.yul\":9986:9991   */\n      dup2\n        /* \"#utility.yul\":9979:9991   */\n      swap1\n      pop\n        /* \"#utility.yul\":9922:9997   */\n      swap2\n      swap1\n      pop\n      jump\t// out\n        /* \"#utility.yul\":10003:10272   */\n    tag_86:\n        /* \"#utility.yul\":10113:10152   */\n      tag_196\n        /* \"#utility.yul\":10144:10151   */\n      dup4\n        /* \"#utility.yul\":10113:10152   */\n      tag_84\n      jump\t// in\n    tag_196:\n        /* \"#utility.yul\":10174:10265   */\n      tag_197\n        /* \"#utility.yul\":10223:10264   */\n      tag_198\n        /* \"#utility.yul\":10247:10263   */\n      dup3\n        /* \"#utility.yul\":10223:10264   */\n      tag_85\n      jump\t// in\n    tag_198:\n        /* \"#utility.yul\":10215:10221   */\n      dup5\n        /* \"#utility.yul\":10208:10212   */\n      dup5\n        /* \"#utility.yul\":10202:10213   */\n      sload\n        /* \"#utility.yul\":10174:10265   */\n      tag_81\n      jump\t// in\n    tag_197:\n        /* \"#utility.yul\":10168:10172   */\n      dup3\n        /* \"#utility.yul\":10161:10266   */\n      sstore\n        /* \"#utility.yul\":10079:10272   */\n      pop\n        /* \"#utility.yul\":10003:10272   */\n      pop\n      pop\n      pop\n      jump\t// out\n        /* \"#utility.yul\":10278:10351   */\n    tag_87:\n        /* \"#utility.yul\":10323:10326   */\n      0x00\n        /* \"#utility.yul\":10278:10351   */\n      swap1\n      jump\t// out\n        /* \"#utility.yul\":10357:10546   */\n    tag_88:\n        /* \"#utility.yul\":10434:10466   */\n      tag_201\n      tag_87\n      jump\t// in\n    tag_201:\n        /* \"#utility.yul\":10475:10540   */\n      tag_202\n        /* \"#utility.yul\":10533:10539   */\n      dup2\n        /* \"#utility.yul\":10525:10531   */\n      dup5\n        /* \"#utility.yul\":10519:10523   */\n      dup5\n        /* \"#utility.yul\":10475:10540   */\n      tag_86\n      jump\t// in\n    tag_202:\n        /* \"#utility.yul\":10410:10546   */\n      pop\n        /* \"#utility.yul\":10357:10546   */\n      pop\n      pop\n      jump\t// out\n        /* \"#utility.yul\":10552:10738   */\n    tag_89:\n        /* \"#utility.yul\":10612:10732   */\n    tag_204:\n        /* \"#utility.yul\":10629:10632   */\n      dup2\n        /* \"#utility.yul\":10622:10627   */\n      dup2\n        /* \"#utility.yul\":10619:10633   */\n      lt\n        /* \"#utility.yul\":10612:10732   */\n      iszero\n      tag_206\n      jumpi\n        /* \"#utility.yul\":10683:10722   */\n      tag_207\n        /* \"#utility.yul\":10720:10721   */\n      0x00\n        /* \"#utility.yul\":10713:10718   */\n      dup3\n        /* \"#utility.yul\":10683:10722   */\n      tag_88\n      jump\t// in\n    tag_207:\n        /* \"#utility.yul\":10656:10657   */\n      0x01\n        /* \"#utility.yul\":10649:10654   */\n      dup2\n        /* \"#utility.yul\":10645:10658   */\n      add\n        /* \"#utility.yul\":10636:10658   */\n      swap1\n      pop\n        /* \"#utility.yul\":10612:10732   */\n      jump(tag_204)\n    tag_206:\n        /* \"#utility.yul\":10552:10738   */\n      pop\n      pop\n      jump\t// out\n        /* \"#utility.yul\":10744:11287   */\n    tag_90:\n        /* \"#utility.yul\":10845:10847   */\n      0x1f\n        /* \"#utility.yul\":10840:10843   */\n      dup3\n        /* \"#utility.yul\":10837:10848   */\n      gt\n        /* \"#utility.yul\":10834:11280   */\n      iszero\n      tag_209\n      jumpi\n        /* \"#utility.yul\":10879:10917   */\n      tag_210\n        /* \"#utility.yul\":10911:10916   */\n      dup2\n        /* \"#utility.yul\":10879:10917   */\n      tag_78\n      jump\t// in\n    tag_210:\n        /* \"#utility.yul\":10963:10992   */\n      tag_211\n        /* \"#utility.yul\":10981:10991   */\n      dup5\n        /* \"#utility.yul\":10963:10992   */\n      tag_79\n      jump\t// in\n    tag_211:\n        /* \"#utility.yul\":10953:10961   */\n      dup2\n        /* \"#utility.yul\":10949:10993   */\n      add\n        /* \"#utility.yul\":11146:11148   */\n      0x20\n        /* \"#utility.yul\":11134:11144   */\n      dup6\n        /* \"#utility.yul\":11131:11149   */\n      lt\n        /* \"#utility.yul\":11128:11177   */\n      iszero\n      tag_212\n      jumpi\n        /* \"#utility.yul\":11167:11175   */\n      dup2\n        /* \"#utility.yul\":11152:11175   */\n      swap1\n      pop\n        /* \"#utility.yul\":11128:11177   */\n    tag_212:\n        /* \"#utility.yul\":11190:11270   */\n      tag_213\n        /* \"#utility.yul\":11246:11268   */\n      tag_214\n        /* \"#utility.yul\":11264:11267   */\n      dup6\n        /* \"#utility.yul\":11246:11268   */\n      tag_79\n      jump\t// in\n    tag_214:\n        /* \"#utility.yul\":11236:11244   */\n      dup4\n        /* \"#utility.yul\":11232:11269   */\n      add\n        /* \"#utility.yul\":11219:11230   */\n      dup3\n        /* \"#utility.yul\":11190:11270   */\n      tag_89\n      jump\t// in\n    tag_213:\n        /* \"#utility.yul\":10849:11280   */\n      pop\n      pop\n        /* \"#utility.yul\":10834:11280   */\n    tag_209:\n        /* \"#utility.yul\":10744:11287   */\n      pop\n      pop\n      pop\n      jump\t// out\n        /* \"#utility.yul\":11293:11410   */\n    tag_91:\n        /* \"#utility.yul\":11347:11355   */\n      0x00\n        /* \"#utility.yul\":11397:11402   */\n      dup3\n        /* \"#utility.yul\":11391:11395   */\n      dup3\n        /* \"#utility.yul\":11387:11403   */\n      shr\n        /* \"#utility.yul\":11366:11403   */\n      swap1\n      pop\n        /* \"#utility.yul\":11293:11410   */\n      swap3\n      swap2\n      pop\n      pop\n      jump\t// out\n        /* \"#utility.yul\":11416:11585   */\n    tag_92:\n        /* \"#utility.yul\":11460:11466   */\n      0x00\n        /* \"#utility.yul\":11493:11544   */\n      tag_217\n        /* \"#utility.yul\":11541:11542   */\n      0x00\n        /* \"#utility.yul\":11537:11543   */\n      not\n        /* \"#utility.yul\":11529:11534   */\n      dup5\n        /* \"#utility.yul\":11526:11527   */\n      0x08\n        /* \"#utility.yul\":11522:11535   */\n      mul\n        /* \"#utility.yul\":11493:11544   */\n      tag_91\n      jump\t// in\n    tag_217:\n        /* \"#utility.yul\":11489:11545   */\n      not\n        /* \"#utility.yul\":11574:11578   */\n      dup1\n        /* \"#utility.yul\":11568:11572   */\n      dup4\n        /* \"#utility.yul\":11564:11579   */\n      and\n        /* \"#utility.yul\":11554:11579   */\n      swap2\n      pop\n        /* \"#utility.yul\":11467:11585   */\n      pop\n        /* \"#utility.yul\":11416:11585   */\n      swap3\n      swap2\n      pop\n      pop\n      jump\t// out\n        /* \"#utility.yul\":11590:11885   */\n    tag_93:\n        /* \"#utility.yul\":11666:11670   */\n      0x00\n        /* \"#utility.yul\":11812:11841   */\n      tag_219\n        /* \"#utility.yul\":11837:11840   */\n      dup4\n        /* \"#utility.yul\":11831:11835   */\n      dup4\n        /* \"#utility.yul\":11812:11841   */\n      tag_92\n      jump\t// in\n    tag_219:\n        /* \"#utility.yul\":11804:11841   */\n      swap2\n      pop\n        /* \"#utility.yul\":11874:11877   */\n      dup3\n        /* \"#utility.yul\":11871:11872   */\n      0x02\n        /* \"#utility.yul\":11867:11878   */\n      mul\n        /* \"#utility.yul\":11861:11865   */\n      dup3\n        /* \"#utility.yul\":11858:11879   */\n      or\n        /* \"#utility.yul\":11850:11879   */\n      swap1\n      pop\n        /* \"#utility.yul\":11590:11885   */\n      swap3\n      swap2\n      pop\n      pop\n      jump\t// out\n        /* \"#utility.yul\":11890:13285   */\n    tag_46:\n        /* \"#utility.yul\":12007:12044   */\n      tag_221\n        /* \"#utility.yul\":12040:12043   */\n      dup3\n        /* \"#utility.yul\":12007:12044   */\n      tag_60\n      jump\t// in\n    tag_221:\n        /* \"#utility.yul\":12109:12127   */\n      0xffffffffffffffff\n        /* \"#utility.yul\":12101:12107   */\n      dup2\n        /* \"#utility.yul\":12098:12128   */\n      gt\n        /* \"#utility.yul\":12095:12151   */\n      iszero\n      tag_222\n      jumpi\n        /* \"#utility.yul\":12131:12149   */\n      tag_223\n      tag_68\n      jump\t// in\n    tag_223:\n        /* \"#utility.yul\":12095:12151   */\n    tag_222:\n        /* \"#utility.yul\":12175:12213   */\n      tag_224\n        /* \"#utility.yul\":12207:12211   */\n      dup3\n        /* \"#utility.yul\":12201:12212   */\n      sload\n        /* \"#utility.yul\":12175:12213   */\n      tag_16\n      jump\t// in\n    tag_224:\n        /* \"#utility.yul\":12260:12327   */\n      tag_225\n        /* \"#utility.yul\":12320:12326   */\n      dup3\n        /* \"#utility.yul\":12312:12318   */\n      dup3\n        /* \"#utility.yul\":12306:12310   */\n      dup6\n        /* \"#utility.yul\":12260:12327   */\n      tag_90\n      jump\t// in\n    tag_225:\n        /* \"#utility.yul\":12354:12355   */\n      0x00\n        /* \"#utility.yul\":12378:12382   */\n      0x20\n        /* \"#utility.yul\":12365:12382   */\n      swap1\n      pop\n        /* \"#utility.yul\":12410:12412   */\n      0x1f\n        /* \"#utility.yul\":12402:12408   */\n      dup4\n        /* \"#utility.yul\":12399:12413   */\n      gt\n        /* \"#utility.yul\":12427:12428   */\n      0x01\n        /* \"#utility.yul\":12422:13040   */\n      dup2\n      eq\n      tag_227\n      jumpi\n        /* \"#utility.yul\":13084:13085   */\n      0x00\n        /* \"#utility.yul\":13101:13107   */\n      dup5\n        /* \"#utility.yul\":13098:13175   */\n      iszero\n      tag_228\n      jumpi\n        /* \"#utility.yul\":13150:13159   */\n      dup3\n        /* \"#utility.yul\":13145:13148   */\n      dup8\n        /* \"#utility.yul\":13141:13160   */\n      add\n        /* \"#utility.yul\":13135:13161   */\n      mload\n        /* \"#utility.yul\":13126:13161   */\n      swap1\n      pop\n        /* \"#utility.yul\":13098:13175   */\n    tag_228:\n        /* \"#utility.yul\":13201:13268   */\n      tag_229\n        /* \"#utility.yul\":13261:13267   */\n      dup6\n        /* \"#utility.yul\":13254:13259   */\n      dup3\n        /* \"#utility.yul\":13201:13268   */\n      tag_93\n      jump\t// in\n    tag_229:\n        /* \"#utility.yul\":13195:13199   */\n      dup7\n        /* \"#utility.yul\":13188:13269   */\n      sstore\n        /* \"#utility.yul\":13057:13279   */\n      pop\n        /* \"#utility.yul\":12392:13279   */\n      jump(tag_226)\n        /* \"#utility.yul\":12422:13040   */\n    tag_227:\n        /* \"#utility.yul\":12474:12478   */\n      0x1f\n        /* \"#utility.yul\":12470:12479   */\n      not\n        /* \"#utility.yul\":12462:12468   */\n      dup5\n        /* \"#utility.yul\":12458:12480   */\n      and\n        /* \"#utility.yul\":12508:12545   */\n      tag_230\n        /* \"#utility.yul\":12540:12544   */\n      dup7\n        /* \"#utility.yul\":12508:12545   */\n      tag_78\n      jump\t// in\n    tag_230:\n        /* \"#utility.yul\":12567:12568   */\n      0x00\n        /* \"#utility.yul\":12581:12789   */\n    tag_231:\n        /* \"#utility.yul\":12595:12602   */\n      dup3\n        /* \"#utility.yul\":12592:12593   */\n      dup2\n        /* \"#utility.yul\":12589:12603   */\n      lt\n        /* \"#utility.yul\":12581:12789   */\n      iszero\n      tag_233\n      jumpi\n        /* \"#utility.yul\":12674:12683   */\n      dup5\n        /* \"#utility.yul\":12669:12672   */\n      dup10\n        /* \"#utility.yul\":12665:12684   */\n      add\n        /* \"#utility.yul\":12659:12685   */\n      mload\n        /* \"#utility.yul\":12651:12657   */\n      dup3\n        /* \"#utility.yul\":12644:12686   */\n      sstore\n        /* \"#utility.yul\":12725:12726   */\n      0x01\n        /* \"#utility.yul\":12717:12723   */\n      dup3\n        /* \"#utility.yul\":12713:12727   */\n      add\n        /* \"#utility.yul\":12703:12727   */\n      swap2\n      pop\n        /* \"#utility.yul\":12772:12774   */\n      0x20\n        /* \"#utility.yul\":12761:12770   */\n      dup6\n        /* \"#utility.yul\":12757:12775   */\n      add\n        /* \"#utility.yul\":12744:12775   */\n      swap5\n      pop\n        /* \"#utility.yul\":12618:12622   */\n      0x20\n        /* \"#utility.yul\":12615:12616   */\n      dup2\n        /* \"#utility.yul\":12611:12623   */\n      add\n        /* \"#utility.yul\":12606:12623   */\n      swap1\n      pop\n        /* \"#utility.yul\":12581:12789   */\n      jump(tag_231)\n    tag_233:\n        /* \"#utility.yul\":12817:12823   */\n      dup7\n        /* \"#utility.yul\":12808:12815   */\n      dup4\n        /* \"#utility.yul\":12805:12824   */\n      lt\n        /* \"#utility.yul\":12802:12981   */\n      iszero\n      tag_234\n      jumpi\n        /* \"#utility.yul\":12875:12884   */\n      dup5\n        /* \"#utility.yul\":12870:12873   */\n      dup10\n        /* \"#utility.yul\":12866:12885   */\n      add\n        /* \"#utility.yul\":12860:12886   */\n      mload\n        /* \"#utility.yul\":12918:12966   */\n      tag_235\n        /* \"#utility.yul\":12960:12964   */\n      0x1f\n        /* \"#utility.yul\":12952:12958   */\n      dup10\n        /* \"#utility.yul\":12948:12965   */\n      and\n        /* \"#utility.yul\":12937:12946   */\n      dup3\n        /* \"#utility.yul\":12918:12966   */\n      tag_92\n      jump\t// in\n    tag_235:\n        /* \"#utility.yul\":12910:12916   */\n      dup4\n        /* \"#utility.yul\":12903:12967   */\n      sstore\n        /* \"#utility.yul\":12825:12981   */\n      pop\n        /* \"#utility.yul\":12802:12981   */\n    tag_234:\n        /* \"#utility.yul\":13027:13028   */\n      0x01\n        /* \"#utility.yul\":13023:13024   */\n      0x02\n        /* \"#utility.yul\":13015:13021   */\n      dup9\n        /* \"#utility.yul\":13011:13025   */\n      mul\n        /* \"#utility.yul\":13007:13029   */\n      add\n        /* \"#utility.yul\":13001:13005   */\n      dup9\n        /* \"#utility.yul\":12994:13030   */\n      sstore\n        /* \"#utility.yul\":12429:13040   */\n      pop\n      pop\n      pop\n        /* \"#utility.yul\":12392:13279   */\n    tag_226:\n      pop\n        /* \"#utility.yul\":11982:13285   */\n      pop\n      pop\n      pop\n        /* \"#utility.yul\":11890:13285   */\n      pop\n      pop\n      jump\t// out\n        /* \"#utility.yul\":13291:14410   */\n    tag_52:\n        /* \"#utility.yul\":13596:13600   */\n      0x00\n        /* \"#utility.yul\":13634:13637   */\n      0xa0\n        /* \"#utility.yul\":13623:13632   */\n      dup3\n        /* \"#utility.yul\":13619:13638   */\n      add\n        /* \"#utility.yul\":13611:13638   */\n      swap1\n      pop\n        /* \"#utility.yul\":13684:13693   */\n      dup2\n        /* \"#utility.yul\":13678:13682   */\n      dup2\n        /* \"#utility.yul\":13674:13694   */\n      sub\n        /* \"#utility.yul\":13670:13671   */\n      0x00\n        /* \"#utility.yul\":13659:13668   */\n      dup4\n        /* \"#utility.yul\":13655:13672   */\n      add\n        /* \"#utility.yul\":13648:13695   */\n      mstore\n        /* \"#utility.yul\":13712:13790   */\n      tag_237\n        /* \"#utility.yul\":13785:13789   */\n      dup2\n        /* \"#utility.yul\":13776:13782   */\n      dup9\n        /* \"#utility.yul\":13712:13790   */\n      tag_64\n      jump\t// in\n    tag_237:\n        /* \"#utility.yul\":13704:13790   */\n      swap1\n      pop\n        /* \"#utility.yul\":13837:13846   */\n      dup2\n        /* \"#utility.yul\":13831:13835   */\n      dup2\n        /* \"#utility.yul\":13827:13847   */\n      sub\n        /* \"#utility.yul\":13822:13824   */\n      0x20\n        /* \"#utility.yul\":13811:13820   */\n      dup4\n        /* \"#utility.yul\":13807:13825   */\n      add\n        /* \"#utility.yul\":13800:13848   */\n      mstore\n        /* \"#utility.yul\":13865:13943   */\n      tag_238\n        /* \"#utility.yul\":13938:13942   */\n      dup2\n        /* \"#utility.yul\":13929:13935   */\n      dup8\n        /* \"#utility.yul\":13865:13943   */\n      tag_64\n      jump\t// in\n    tag_238:\n        /* \"#utility.yul\":13857:13943   */\n      swap1\n      pop\n        /* \"#utility.yul\":13990:13999   */\n      dup2\n        /* \"#utility.yul\":13984:13988   */\n      dup2\n        /* \"#utility.yul\":13980:14000   */\n      sub\n        /* \"#utility.yul\":13975:13977   */\n      0x40\n        /* \"#utility.yul\":13964:13973   */\n      dup4\n        /* \"#utility.yul\":13960:13978   */\n      add\n        /* \"#utility.yul\":13953:14001   */\n      mstore\n        /* \"#utility.yul\":14018:14096   */\n      tag_239\n        /* \"#utility.yul\":14091:14095   */\n      dup2\n        /* \"#utility.yul\":14082:14088   */\n      dup7\n        /* \"#utility.yul\":14018:14096   */\n      tag_64\n      jump\t// in\n    tag_239:\n        /* \"#utility.yul\":14010:14096   */\n      swap1\n      pop\n        /* \"#utility.yul\":14143:14152   */\n      dup2\n        /* \"#utility.yul\":14137:14141   */\n      dup2\n        /* \"#utility.yul\":14133:14153   */\n      sub\n        /* \"#utility.yul\":14128:14130   */\n      0x60\n        /* \"#utility.yul\":14117:14126   */\n      dup4\n        /* \"#utility.yul\":14113:14131   */\n      add\n        /* \"#utility.yul\":14106:14154   */\n      mstore\n        /* \"#utility.yul\":14171:14249   */\n      tag_240\n        /* \"#utility.yul\":14244:14248   */\n      dup2\n        /* \"#utility.yul\":14235:14241   */\n      dup6\n        /* \"#utility.yul\":14171:14249   */\n      tag_64\n      jump\t// in\n    tag_240:\n        /* \"#utility.yul\":14163:14249   */\n      swap1\n      pop\n        /* \"#utility.yul\":14297:14306   */\n      dup2\n        /* \"#utility.yul\":14291:14295   */\n      dup2\n        /* \"#utility.yul\":14287:14307   */\n      sub\n        /* \"#utility.yul\":14281:14284   */\n      0x80\n        /* \"#utility.yul\":14270:14279   */\n      dup4\n        /* \"#utility.yul\":14266:14285   */\n      add\n        /* \"#utility.yul\":14259:14308   */\n      mstore\n        /* \"#utility.yul\":14325:14403   */\n      tag_241\n        /* \"#utility.yul\":14398:14402   */\n      dup2\n        /* \"#utility.yul\":14389:14395   */\n      dup5\n        /* \"#utility.yul\":14325:14403   */\n      tag_64\n      jump\t// in\n    tag_241:\n        /* \"#utility.yul\":14317:14403   */\n      swap1\n      pop\n        /* \"#utility.yul\":13291:14410   */\n      swap7\n      swap6\n      pop\n      pop\n      pop\n      pop\n      pop\n      pop\n      jump\t// out\n\n    auxdata: 0xa2646970667358221220df884087fe5a832390b7b0d7a42a39dcbe4b4f4df8e6c9dd52134037464bc41f64736f6c634300081a0033\n}\n",
				"bytecode": {
					"linkReferences": {},
					"object": "6080604052348015600e575f80fd5b50610d848061001c5f395ff3fe608060405234801561000f575f80fd5b5060043610610034575f3560e01c8063a87430ba14610038578063ac9f0a401461006d575b5f80fd5b610052600480360381019061004d9190610645565b610089565b604051610064969594939291906106ef565b60405180910390f35b6100876004803603810190610082919061089d565b61037d565b005b5f602052805f5260405f205f91509050805f0180546100a7906109cd565b80601f01602080910402602001604051908101604052809291908181526020018280546100d3906109cd565b801561011e5780601f106100f55761010080835404028352916020019161011e565b820191905f5260205f20905b81548152906001019060200180831161010157829003601f168201915b505050505090806001018054610133906109cd565b80601f016020809104026020016040519081016040528092919081815260200182805461015f906109cd565b80156101aa5780601f10610181576101008083540402835291602001916101aa565b820191905f5260205f20905b81548152906001019060200180831161018d57829003601f168201915b5050505050908060020180546101bf906109cd565b80601f01602080910402602001604051908101604052809291908181526020018280546101eb906109cd565b80156102365780601f1061020d57610100808354040283529160200191610236565b820191905f5260205f20905b81548152906001019060200180831161021957829003601f168201915b50505050509080600301805461024b906109cd565b80601f0160208091040260200160405190810160405280929190818152602001828054610277906109cd565b80156102c25780601f10610299576101008083540402835291602001916102c2565b820191905f5260205f20905b8154815290600101906020018083116102a557829003601f168201915b5050505050908060040180546102d7906109cd565b80601f0160208091040260200160405190810160405280929190818152602001828054610303906109cd565b801561034e5780601f106103255761010080835404028352916020019161034e565b820191905f5260205f20905b81548152906001019060200180831161033157829003601f168201915b505050505090806005015f9054906101000a900473ffffffffffffffffffffffffffffffffffffffff16905086565b5f73ffffffffffffffffffffffffffffffffffffffff165f803373ffffffffffffffffffffffffffffffffffffffff1673ffffffffffffffffffffffffffffffffffffffff1681526020019081526020015f206005015f9054906101000a900473ffffffffffffffffffffffffffffffffffffffff1673ffffffffffffffffffffffffffffffffffffffff1614610449576040517f08c379a000000000000000000000000000000000000000000000000000000000815260040161044090610a47565b60405180910390fd5b6040518060c001604052808681526020018581526020018481526020018381526020018281526020013373ffffffffffffffffffffffffffffffffffffffff168152505f803373ffffffffffffffffffffffffffffffffffffffff1673ffffffffffffffffffffffffffffffffffffffff1681526020019081526020015f205f820151815f0190816104db9190610c0b565b5060208201518160010190816104f19190610c0b565b5060408201518160020190816105079190610c0b565b50606082015181600301908161051d9190610c0b565b5060808201518160040190816105339190610c0b565b5060a0820151816005015f6101000a81548173ffffffffffffffffffffffffffffffffffffffff021916908373ffffffffffffffffffffffffffffffffffffffff1602179055509050503373ffffffffffffffffffffffffffffffffffffffff167faaac58397f8c3230a87dbaff67cde6af946ab191ac161782e4e95226802fdb2386868686866040516105cb959493929190610cda565b60405180910390a25050505050565b5f604051905090565b5f80fd5b5f80fd5b5f73ffffffffffffffffffffffffffffffffffffffff82169050919050565b5f610614826105eb565b9050919050565b6106248161060a565b811461062e575f80fd5b50565b5f8135905061063f8161061b565b92915050565b5f6020828403121561065a576106596105e3565b5b5f61066784828501610631565b91505092915050565b5f81519050919050565b5f82825260208201905092915050565b8281835e5f83830152505050565b5f601f19601f8301169050919050565b5f6106b282610670565b6106bc818561067a565b93506106cc81856020860161068a565b6106d581610698565b840191505092915050565b6106e98161060a565b82525050565b5f60c0820190508181035f83015261070781896106a8565b9050818103602083015261071b81886106a8565b9050818103604083015261072f81876106a8565b9050818103606083015261074381866106a8565b9050818103608083015261075781856106a8565b905061076660a08301846106e0565b979650505050505050565b5f80fd5b5f80fd5b7f4e487b71000000000000000000000000000000000000000000000000000000005f52604160045260245ffd5b6107af82610698565b810181811067ffffffffffffffff821117156107ce576107cd610779565b5b80604052505050565b5f6107e06105da565b90506107ec82826107a6565b919050565b5f67ffffffffffffffff82111561080b5761080a610779565b5b61081482610698565b9050602081019050919050565b828183375f83830152505050565b5f61084161083c846107f1565b6107d7565b90508281526020810184848401111561085d5761085c610775565b5b610868848285610821565b509392505050565b5f82601f83011261088457610883610771565b5b813561089484826020860161082f565b91505092915050565b5f805f805f60a086880312156108b6576108b56105e3565b5b5f86013567ffffffffffffffff8111156108d3576108d26105e7565b5b6108df88828901610870565b955050602086013567ffffffffffffffff811115610900576108ff6105e7565b5b61090c88828901610870565b945050604086013567ffffffffffffffff81111561092d5761092c6105e7565b5b61093988828901610870565b935050606086013567ffffffffffffffff81111561095a576109596105e7565b5b61096688828901610870565b925050608086013567ffffffffffffffff811115610987576109866105e7565b5b61099388828901610870565b9150509295509295909350565b7f4e487b71000000000000000000000000000000000000000000000000000000005f52602260045260245ffd5b5f60028204905060018216806109e457607f821691505b6020821081036109f7576109f66109a0565b5b50919050565b7f5573657220616c726561647920657869737473210000000000000000000000005f82015250565b5f610a3160148361067a565b9150610a3c826109fd565b602082019050919050565b5f6020820190508181035f830152610a5e81610a25565b9050919050565b5f819050815f5260205f209050919050565b5f6020601f8301049050919050565b5f82821b905092915050565b5f60088302610ac17fffffffffffffffffffffffffffffffffffffffffffffffffffffffffffffffff82610a86565b610acb8683610a86565b95508019841693508086168417925050509392505050565b5f819050919050565b5f819050919050565b5f610b0f610b0a610b0584610ae3565b610aec565b610ae3565b9050919050565b5f819050919050565b610b2883610af5565b610b3c610b3482610b16565b848454610a92565b825550505050565b5f90565b610b50610b44565b610b5b818484610b1f565b505050565b5b81811015610b7e57610b735f82610b48565b600181019050610b61565b5050565b601f821115610bc357610b9481610a65565b610b9d84610a77565b81016020851015610bac578190505b610bc0610bb885610a77565b830182610b60565b50505b505050565b5f82821c905092915050565b5f610be35f1984600802610bc8565b1980831691505092915050565b5f610bfb8383610bd4565b9150826002028217905092915050565b610c1482610670565b67ffffffffffffffff811115610c2d57610c2c610779565b5b610c3782546109cd565b610c42828285610b82565b5f60209050601f831160018114610c73575f8415610c61578287015190505b610c6b8582610bf0565b865550610cd2565b601f198416610c8186610a65565b5f5b82811015610ca857848901518255600182019150602085019450602081019050610c83565b86831015610cc55784890151610cc1601f891682610bd4565b8355505b6001600288020188555050505b505050505050565b5f60a0820190508181035f830152610cf281886106a8565b90508181036020830152610d0681876106a8565b90508181036040830152610d1a81866106a8565b90508181036060830152610d2e81856106a8565b90508181036080830152610d4281846106a8565b9050969550505050505056fea2646970667358221220df884087fe5a832390b7b0d7a42a39dcbe4b4f4df8e6c9dd52134037464bc41f64736f6c634300081a0033",
					"opcodes": "PUSH1 0x80 PUSH1 0x40 MSTORE CALLVALUE DUP1 ISZERO PUSH1 0xE JUMPI PUSH0 DUP1 REVERT JUMPDEST POP PUSH2 0xD84 DUP1 PUSH2 0x1C PUSH0 CODECOPY PUSH0 RETURN INVALID PUSH1 0x80 PUSH1 0x40 MSTORE CALLVALUE DUP1 ISZERO PUSH2 0xF JUMPI PUSH0 DUP1 REVERT JUMPDEST POP PUSH1 0x4 CALLDATASIZE LT PUSH2 0x34 JUMPI PUSH0 CALLDATALOAD PUSH1 0xE0 SHR DUP1 PUSH4 0xA87430BA EQ PUSH2 0x38 JUMPI DUP1 PUSH4 0xAC9F0A40 EQ PUSH2 0x6D JUMPI JUMPDEST PUSH0 DUP1 REVERT JUMPDEST PUSH2 0x52 PUSH1 0x4 DUP1 CALLDATASIZE SUB DUP2 ADD SWAP1 PUSH2 0x4D SWAP2 SWAP1 PUSH2 0x645 JUMP JUMPDEST PUSH2 0x89 JUMP JUMPDEST PUSH1 0x40 MLOAD PUSH2 0x64 SWAP7 SWAP6 SWAP5 SWAP4 SWAP3 SWAP2 SWAP1 PUSH2 0x6EF JUMP JUMPDEST PUSH1 0x40 MLOAD DUP1 SWAP2 SUB SWAP1 RETURN JUMPDEST PUSH2 0x87 PUSH1 0x4 DUP1 CALLDATASIZE SUB DUP2 ADD SWAP1 PUSH2 0x82 SWAP2 SWAP1 PUSH2 0x89D JUMP JUMPDEST PUSH2 0x37D JUMP JUMPDEST STOP JUMPDEST PUSH0 PUSH1 0x20 MSTORE DUP1 PUSH0 MSTORE PUSH1 0x40 PUSH0 KECCAK256 PUSH0 SWAP2 POP SWAP1 POP DUP1 PUSH0 ADD DUP1 SLOAD PUSH2 0xA7 SWAP1 PUSH2 0x9CD JUMP JUMPDEST DUP1 PUSH1 0x1F ADD PUSH1 0x20 DUP1 SWAP2 DIV MUL PUSH1 0x20 ADD PUSH1 0x40 MLOAD SWAP1 DUP2 ADD PUSH1 0x40 MSTORE DUP1 SWAP3 SWAP2 SWAP1 DUP2 DUP2 MSTORE PUSH1 0x20 ADD DUP3 DUP1 SLOAD PUSH2 0xD3 SWAP1 PUSH2 0x9CD JUMP JUMPDEST DUP1 ISZERO PUSH2 0x11E JUMPI DUP1 PUSH1 0x1F LT PUSH2 0xF5 JUMPI PUSH2 0x100 DUP1 DUP4 SLOAD DIV MUL DUP4 MSTORE SWAP2 PUSH1 0x20 ADD SWAP2 PUSH2 0x11E JUMP JUMPDEST DUP3 ADD SWAP2 SWAP1 PUSH0 MSTORE PUSH1 0x20 PUSH0 KECCAK256 SWAP1 JUMPDEST DUP2 SLOAD DUP2 MSTORE SWAP1 PUSH1 0x1 ADD SWAP1 PUSH1 0x20 ADD DUP1 DUP4 GT PUSH2 0x101 JUMPI DUP3 SWAP1 SUB PUSH1 0x1F AND DUP3 ADD SWAP2 JUMPDEST POP POP POP POP POP SWAP1 DUP1 PUSH1 0x1 ADD DUP1 SLOAD PUSH2 0x133 SWAP1 PUSH2 0x9CD JUMP JUMPDEST DUP1 PUSH1 0x1F ADD PUSH1 0x20 DUP1 SWAP2 DIV MUL PUSH1 0x20 ADD PUSH1 0x40 MLOAD SWAP1 DUP2 ADD PUSH1 0x40 MSTORE DUP1 SWAP3 SWAP2 SWAP1 DUP2 DUP2 MSTORE PUSH1 0x20 ADD DUP3 DUP1 SLOAD PUSH2 0x15F SWAP1 PUSH2 0x9CD JUMP JUMPDEST DUP1 ISZERO PUSH2 0x1AA JUMPI DUP1 PUSH1 0x1F LT PUSH2 0x181 JUMPI PUSH2 0x100 DUP1 DUP4 SLOAD DIV MUL DUP4 MSTORE SWAP2 PUSH1 0x20 ADD SWAP2 PUSH2 0x1AA JUMP JUMPDEST DUP3 ADD SWAP2 SWAP1 PUSH0 MSTORE PUSH1 0x20 PUSH0 KECCAK256 SWAP1 JUMPDEST DUP2 SLOAD DUP2 MSTORE SWAP1 PUSH1 0x1 ADD SWAP1 PUSH1 0x20 ADD DUP1 DUP4 GT PUSH2 0x18D JUMPI DUP3 SWAP1 SUB PUSH1 0x1F AND DUP3 ADD SWAP2 JUMPDEST POP POP POP POP POP SWAP1 DUP1 PUSH1 0x2 ADD DUP1 SLOAD PUSH2 0x1BF SWAP1 PUSH2 0x9CD JUMP JUMPDEST DUP1 PUSH1 0x1F ADD PUSH1 0x20 DUP1 SWAP2 DIV MUL PUSH1 0x20 ADD PUSH1 0x40 MLOAD SWAP1 DUP2 ADD PUSH1 0x40 MSTORE DUP1 SWAP3 SWAP2 SWAP1 DUP2 DUP2 MSTORE PUSH1 0x20 ADD DUP3 DUP1 SLOAD PUSH2 0x1EB SWAP1 PUSH2 0x9CD JUMP JUMPDEST DUP1 ISZERO PUSH2 0x236 JUMPI DUP1 PUSH1 0x1F LT PUSH2 0x20D JUMPI PUSH2 0x100 DUP1 DUP4 SLOAD DIV MUL DUP4 MSTORE SWAP2 PUSH1 0x20 ADD SWAP2 PUSH2 0x236 JUMP JUMPDEST DUP3 ADD SWAP2 SWAP1 PUSH0 MSTORE PUSH1 0x20 PUSH0 KECCAK256 SWAP1 JUMPDEST DUP2 SLOAD DUP2 MSTORE SWAP1 PUSH1 0x1 ADD SWAP1 PUSH1 0x20 ADD DUP1 DUP4 GT PUSH2 0x219 JUMPI DUP3 SWAP1 SUB PUSH1 0x1F AND DUP3 ADD SWAP2 JUMPDEST POP POP POP POP POP SWAP1 DUP1 PUSH1 0x3 ADD DUP1 SLOAD PUSH2 0x24B SWAP1 PUSH2 0x9CD JUMP JUMPDEST DUP1 PUSH1 0x1F ADD PUSH1 0x20 DUP1 SWAP2 DIV MUL PUSH1 0x20 ADD PUSH1 0x40 MLOAD SWAP1 DUP2 ADD PUSH1 0x40 MSTORE DUP1 SWAP3 SWAP2 SWAP1 DUP2 DUP2 MSTORE PUSH1 0x20 ADD DUP3 DUP1 SLOAD PUSH2 0x277 SWAP1 PUSH2 0x9CD JUMP JUMPDEST DUP1 ISZERO PUSH2 0x2C2 JUMPI DUP1 PUSH1 0x1F LT PUSH2 0x299 JUMPI PUSH2 0x100 DUP1 DUP4 SLOAD DIV MUL DUP4 MSTORE SWAP2 PUSH1 0x20 ADD SWAP2 PUSH2 0x2C2 JUMP JUMPDEST DUP3 ADD SWAP2 SWAP1 PUSH0 MSTORE PUSH1 0x20 PUSH0 KECCAK256 SWAP1 JUMPDEST DUP2 SLOAD DUP2 MSTORE SWAP1 PUSH1 0x1 ADD SWAP1 PUSH1 0x20 ADD DUP1 DUP4 GT PUSH2 0x2A5 JUMPI DUP3 SWAP1 SUB PUSH1 0x1F AND DUP3 ADD SWAP2 JUMPDEST POP POP POP POP POP SWAP1 DUP1 PUSH1 0x4 ADD DUP1 SLOAD PUSH2 0x2D7 SWAP1 PUSH2 0x9CD JUMP JUMPDEST DUP1 PUSH1 0x1F ADD PUSH1 0x20 DUP1 SWAP2 DIV MUL PUSH1 0x20 ADD PUSH1 0x40 MLOAD SWAP1 DUP2 ADD PUSH1 0x40 MSTORE DUP1 SWAP3 SWAP2 SWAP1 DUP2 DUP2 MSTORE PUSH1 0x20 ADD DUP3 DUP1 SLOAD PUSH2 0x303 SWAP1 PUSH2 0x9CD JUMP JUMPDEST DUP1 ISZERO PUSH2 0x34E JUMPI DUP1 PUSH1 0x1F LT PUSH2 0x325 JUMPI PUSH2 0x100 DUP1 DUP4 SLOAD DIV MUL DUP4 MSTORE SWAP2 PUSH1 0x20 ADD SWAP2 PUSH2 0x34E JUMP JUMPDEST DUP3 ADD SWAP2 SWAP1 PUSH0 MSTORE PUSH1 0x20 PUSH0 KECCAK256 SWAP1 JUMPDEST DUP2 SLOAD DUP2 MSTORE SWAP1 PUSH1 0x1 ADD SWAP1 PUSH1 0x20 ADD DUP1 DUP4 GT PUSH2 0x331 JUMPI DUP3 SWAP1 SUB PUSH1 0x1F AND DUP3 ADD SWAP2 JUMPDEST POP POP POP POP POP SWAP1 DUP1 PUSH1 0x5 ADD PUSH0 SWAP1 SLOAD SWAP1 PUSH2 0x100 EXP SWAP1 DIV PUSH20 0xFFFFFFFFFFFFFFFFFFFFFFFFFFFFFFFFFFFFFFFF AND SWAP1 POP DUP7 JUMP JUMPDEST PUSH0 PUSH20 0xFFFFFFFFFFFFFFFFFFFFFFFFFFFFFFFFFFFFFFFF AND PUSH0 DUP1 CALLER PUSH20 0xFFFFFFFFFFFFFFFFFFFFFFFFFFFFFFFFFFFFFFFF AND PUSH20 0xFFFFFFFFFFFFFFFFFFFFFFFFFFFFFFFFFFFFFFFF AND DUP2 MSTORE PUSH1 0x20 ADD SWAP1 DUP2 MSTORE PUSH1 0x20 ADD PUSH0 KECCAK256 PUSH1 0x5 ADD PUSH0 SWAP1 SLOAD SWAP1 PUSH2 0x100 EXP SWAP1 DIV PUSH20 0xFFFFFFFFFFFFFFFFFFFFFFFFFFFFFFFFFFFFFFFF AND PUSH20 0xFFFFFFFFFFFFFFFFFFFFFFFFFFFFFFFFFFFFFFFF AND EQ PUSH2 0x449 JUMPI PUSH1 0x40 MLOAD PUSH32 0x8C379A000000000000000000000000000000000000000000000000000000000 DUP2 MSTORE PUSH1 0x4 ADD PUSH2 0x440 SWAP1 PUSH2 0xA47 JUMP JUMPDEST PUSH1 0x40 MLOAD DUP1 SWAP2 SUB SWAP1 REVERT JUMPDEST PUSH1 0x40 MLOAD DUP1 PUSH1 0xC0 ADD PUSH1 0x40 MSTORE DUP1 DUP7 DUP2 MSTORE PUSH1 0x20 ADD DUP6 DUP2 MSTORE PUSH1 0x20 ADD DUP5 DUP2 MSTORE PUSH1 0x20 ADD DUP4 DUP2 MSTORE PUSH1 0x20 ADD DUP3 DUP2 MSTORE PUSH1 0x20 ADD CALLER PUSH20 0xFFFFFFFFFFFFFFFFFFFFFFFFFFFFFFFFFFFFFFFF AND DUP2 MSTORE POP PUSH0 DUP1 CALLER PUSH20 0xFFFFFFFFFFFFFFFFFFFFFFFFFFFFFFFFFFFFFFFF AND PUSH20 0xFFFFFFFFFFFFFFFFFFFFFFFFFFFFFFFFFFFFFFFF AND DUP2 MSTORE PUSH1 0x20 ADD SWAP1 DUP2 MSTORE PUSH1 0x20 ADD PUSH0 KECCAK256 PUSH0 DUP3 ADD MLOAD DUP2 PUSH0 ADD SWAP1 DUP2 PUSH2 0x4DB SWAP2 SWAP1 PUSH2 0xC0B JUMP JUMPDEST POP PUSH1 0x20 DUP3 ADD MLOAD DUP2 PUSH1 0x1 ADD SWAP1 DUP2 PUSH2 0x4F1 SWAP2 SWAP1 PUSH2 0xC0B JUMP JUMPDEST POP PUSH1 0x40 DUP3 ADD MLOAD DUP2 PUSH1 0x2 ADD SWAP1 DUP2 PUSH2 0x507 SWAP2 SWAP1 PUSH2 0xC0B JUMP JUMPDEST POP PUSH1 0x60 DUP3 ADD MLOAD DUP2 PUSH1 0x3 ADD SWAP1 DUP2 PUSH2 0x51D SWAP2 SWAP1 PUSH2 0xC0B JUMP JUMPDEST POP PUSH1 0x80 DUP3 ADD MLOAD DUP2 PUSH1 0x4 ADD SWAP1 DUP2 PUSH2 0x533 SWAP2 SWAP1 PUSH2 0xC0B JUMP JUMPDEST POP PUSH1 0xA0 DUP3 ADD MLOAD DUP2 PUSH1 0x5 ADD PUSH0 PUSH2 0x100 EXP DUP2 SLOAD DUP2 PUSH20 0xFFFFFFFFFFFFFFFFFFFFFFFFFFFFFFFFFFFFFFFF MUL NOT AND SWAP1 DUP4 PUSH20 0xFFFFFFFFFFFFFFFFFFFFFFFFFFFFFFFFFFFFFFFF AND MUL OR SWAP1 SSTORE POP SWAP1 POP POP CALLER PUSH20 0xFFFFFFFFFFFFFFFFFFFFFFFFFFFFFFFFFFFFFFFF AND PUSH32 0xAAAC58397F8C3230A87DBAFF67CDE6AF946AB191AC161782E4E95226802FDB23 DUP7 DUP7 DUP7 DUP7 DUP7 PUSH1 0x40 MLOAD PUSH2 0x5CB SWAP6 SWAP5 SWAP4 SWAP3 SWAP2 SWAP1 PUSH2 0xCDA JUMP JUMPDEST PUSH1 0x40 MLOAD DUP1 SWAP2 SUB SWAP1 LOG2 POP POP POP POP POP JUMP JUMPDEST PUSH0 PUSH1 0x40 MLOAD SWAP1 POP SWAP1 JUMP JUMPDEST PUSH0 DUP1 REVERT JUMPDEST PUSH0 DUP1 REVERT JUMPDEST PUSH0 PUSH20 0xFFFFFFFFFFFFFFFFFFFFFFFFFFFFFFFFFFFFFFFF DUP3 AND SWAP1 POP SWAP2 SWAP1 POP JUMP JUMPDEST PUSH0 PUSH2 0x614 DUP3 PUSH2 0x5EB JUMP JUMPDEST SWAP1 POP SWAP2 SWAP1 POP JUMP JUMPDEST PUSH2 0x624 DUP2 PUSH2 0x60A JUMP JUMPDEST DUP2 EQ PUSH2 0x62E JUMPI PUSH0 DUP1 REVERT JUMPDEST POP JUMP JUMPDEST PUSH0 DUP2 CALLDATALOAD SWAP1 POP PUSH2 0x63F DUP2 PUSH2 0x61B JUMP JUMPDEST SWAP3 SWAP2 POP POP JUMP JUMPDEST PUSH0 PUSH1 0x20 DUP3 DUP5 SUB SLT ISZERO PUSH2 0x65A JUMPI PUSH2 0x659 PUSH2 0x5E3 JUMP JUMPDEST JUMPDEST PUSH0 PUSH2 0x667 DUP5 DUP3 DUP6 ADD PUSH2 0x631 JUMP JUMPDEST SWAP2 POP POP SWAP3 SWAP2 POP POP JUMP JUMPDEST PUSH0 DUP2 MLOAD SWAP1 POP SWAP2 SWAP1 POP JUMP JUMPDEST PUSH0 DUP3 DUP3 MSTORE PUSH1 0x20 DUP3 ADD SWAP1 POP SWAP3 SWAP2 POP POP JUMP JUMPDEST DUP3 DUP2 DUP4 MCOPY PUSH0 DUP4 DUP4 ADD MSTORE POP POP POP JUMP JUMPDEST PUSH0 PUSH1 0x1F NOT PUSH1 0x1F DUP4 ADD AND SWAP1 POP SWAP2 SWAP1 POP JUMP JUMPDEST PUSH0 PUSH2 0x6B2 DUP3 PUSH2 0x670 JUMP JUMPDEST PUSH2 0x6BC DUP2 DUP6 PUSH2 0x67A JUMP JUMPDEST SWAP4 POP PUSH2 0x6CC DUP2 DUP6 PUSH1 0x20 DUP7 ADD PUSH2 0x68A JUMP JUMPDEST PUSH2 0x6D5 DUP2 PUSH2 0x698 JUMP JUMPDEST DUP5 ADD SWAP2 POP POP SWAP3 SWAP2 POP POP JUMP JUMPDEST PUSH2 0x6E9 DUP2 PUSH2 0x60A JUMP JUMPDEST DUP3 MSTORE POP POP JUMP JUMPDEST PUSH0 PUSH1 0xC0 DUP3 ADD SWAP1 POP DUP2 DUP2 SUB PUSH0 DUP4 ADD MSTORE PUSH2 0x707 DUP2 DUP10 PUSH2 0x6A8 JUMP JUMPDEST SWAP1 POP DUP2 DUP2 SUB PUSH1 0x20 DUP4 ADD MSTORE PUSH2 0x71B DUP2 DUP9 PUSH2 0x6A8 JUMP JUMPDEST SWAP1 POP DUP2 DUP2 SUB PUSH1 0x40 DUP4 ADD MSTORE PUSH2 0x72F DUP2 DUP8 PUSH2 0x6A8 JUMP JUMPDEST SWAP1 POP DUP2 DUP2 SUB PUSH1 0x60 DUP4 ADD MSTORE PUSH2 0x743 DUP2 DUP7 PUSH2 0x6A8 JUMP JUMPDEST SWAP1 POP DUP2 DUP2 SUB PUSH1 0x80 DUP4 ADD MSTORE PUSH2 0x757 DUP2 DUP6 PUSH2 0x6A8 JUMP JUMPDEST SWAP1 POP PUSH2 0x766 PUSH1 0xA0 DUP4 ADD DUP5 PUSH2 0x6E0 JUMP JUMPDEST SWAP8 SWAP7 POP POP POP POP POP POP POP JUMP JUMPDEST PUSH0 DUP1 REVERT JUMPDEST PUSH0 DUP1 REVERT JUMPDEST PUSH32 0x4E487B7100000000000000000000000000000000000000000000000000000000 PUSH0 MSTORE PUSH1 0x41 PUSH1 0x4 MSTORE PUSH1 0x24 PUSH0 REVERT JUMPDEST PUSH2 0x7AF DUP3 PUSH2 0x698 JUMP JUMPDEST DUP2 ADD DUP2 DUP2 LT PUSH8 0xFFFFFFFFFFFFFFFF DUP3 GT OR ISZERO PUSH2 0x7CE JUMPI PUSH2 0x7CD PUSH2 0x779 JUMP JUMPDEST JUMPDEST DUP1 PUSH1 0x40 MSTORE POP POP POP JUMP JUMPDEST PUSH0 PUSH2 0x7E0 PUSH2 0x5DA JUMP JUMPDEST SWAP1 POP PUSH2 0x7EC DUP3 DUP3 PUSH2 0x7A6 JUMP JUMPDEST SWAP2 SWAP1 POP JUMP JUMPDEST PUSH0 PUSH8 0xFFFFFFFFFFFFFFFF DUP3 GT ISZERO PUSH2 0x80B JUMPI PUSH2 0x80A PUSH2 0x779 JUMP JUMPDEST JUMPDEST PUSH2 0x814 DUP3 PUSH2 0x698 JUMP JUMPDEST SWAP1 POP PUSH1 0x20 DUP2 ADD SWAP1 POP SWAP2 SWAP1 POP JUMP JUMPDEST DUP3 DUP2 DUP4 CALLDATACOPY PUSH0 DUP4 DUP4 ADD MSTORE POP POP POP JUMP JUMPDEST PUSH0 PUSH2 0x841 PUSH2 0x83C DUP5 PUSH2 0x7F1 JUMP JUMPDEST PUSH2 0x7D7 JUMP JUMPDEST SWAP1 POP DUP3 DUP2 MSTORE PUSH1 0x20 DUP2 ADD DUP5 DUP5 DUP5 ADD GT ISZERO PUSH2 0x85D JUMPI PUSH2 0x85C PUSH2 0x775 JUMP JUMPDEST JUMPDEST PUSH2 0x868 DUP5 DUP3 DUP6 PUSH2 0x821 JUMP JUMPDEST POP SWAP4 SWAP3 POP POP POP JUMP JUMPDEST PUSH0 DUP3 PUSH1 0x1F DUP4 ADD SLT PUSH2 0x884 JUMPI PUSH2 0x883 PUSH2 0x771 JUMP JUMPDEST JUMPDEST DUP2 CALLDATALOAD PUSH2 0x894 DUP5 DUP3 PUSH1 0x20 DUP7 ADD PUSH2 0x82F JUMP JUMPDEST SWAP2 POP POP SWAP3 SWAP2 POP POP JUMP JUMPDEST PUSH0 DUP1 PUSH0 DUP1 PUSH0 PUSH1 0xA0 DUP7 DUP9 SUB SLT ISZERO PUSH2 0x8B6 JUMPI PUSH2 0x8B5 PUSH2 0x5E3 JUMP JUMPDEST JUMPDEST PUSH0 DUP7 ADD CALLDATALOAD PUSH8 0xFFFFFFFFFFFFFFFF DUP2 GT ISZERO PUSH2 0x8D3 JUMPI PUSH2 0x8D2 PUSH2 0x5E7 JUMP JUMPDEST JUMPDEST PUSH2 0x8DF DUP9 DUP3 DUP10 ADD PUSH2 0x870 JUMP JUMPDEST SWAP6 POP POP PUSH1 0x20 DUP7 ADD CALLDATALOAD PUSH8 0xFFFFFFFFFFFFFFFF DUP2 GT ISZERO PUSH2 0x900 JUMPI PUSH2 0x8FF PUSH2 0x5E7 JUMP JUMPDEST JUMPDEST PUSH2 0x90C DUP9 DUP3 DUP10 ADD PUSH2 0x870 JUMP JUMPDEST SWAP5 POP POP PUSH1 0x40 DUP7 ADD CALLDATALOAD PUSH8 0xFFFFFFFFFFFFFFFF DUP2 GT ISZERO PUSH2 0x92D JUMPI PUSH2 0x92C PUSH2 0x5E7 JUMP JUMPDEST JUMPDEST PUSH2 0x939 DUP9 DUP3 DUP10 ADD PUSH2 0x870 JUMP JUMPDEST SWAP4 POP POP PUSH1 0x60 DUP7 ADD CALLDATALOAD PUSH8 0xFFFFFFFFFFFFFFFF DUP2 GT ISZERO PUSH2 0x95A JUMPI PUSH2 0x959 PUSH2 0x5E7 JUMP JUMPDEST JUMPDEST PUSH2 0x966 DUP9 DUP3 DUP10 ADD PUSH2 0x870 JUMP JUMPDEST SWAP3 POP POP PUSH1 0x80 DUP7 ADD CALLDATALOAD PUSH8 0xFFFFFFFFFFFFFFFF DUP2 GT ISZERO PUSH2 0x987 JUMPI PUSH2 0x986 PUSH2 0x5E7 JUMP JUMPDEST JUMPDEST PUSH2 0x993 DUP9 DUP3 DUP10 ADD PUSH2 0x870 JUMP JUMPDEST SWAP2 POP POP SWAP3 SWAP6 POP SWAP3 SWAP6 SWAP1 SWAP4 POP JUMP JUMPDEST PUSH32 0x4E487B7100000000000000000000000000000000000000000000000000000000 PUSH0 MSTORE PUSH1 0x22 PUSH1 0x4 MSTORE PUSH1 0x24 PUSH0 REVERT JUMPDEST PUSH0 PUSH1 0x2 DUP3 DIV SWAP1 POP PUSH1 0x1 DUP3 AND DUP1 PUSH2 0x9E4 JUMPI PUSH1 0x7F DUP3 AND SWAP2 POP JUMPDEST PUSH1 0x20 DUP3 LT DUP2 SUB PUSH2 0x9F7 JUMPI PUSH2 0x9F6 PUSH2 0x9A0 JUMP JUMPDEST JUMPDEST POP SWAP2 SWAP1 POP JUMP JUMPDEST PUSH32 0x5573657220616C72656164792065786973747321000000000000000000000000 PUSH0 DUP3 ADD MSTORE POP JUMP JUMPDEST PUSH0 PUSH2 0xA31 PUSH1 0x14 DUP4 PUSH2 0x67A JUMP JUMPDEST SWAP2 POP PUSH2 0xA3C DUP3 PUSH2 0x9FD JUMP JUMPDEST PUSH1 0x20 DUP3 ADD SWAP1 POP SWAP2 SWAP1 POP JUMP JUMPDEST PUSH0 PUSH1 0x20 DUP3 ADD SWAP1 POP DUP2 DUP2 SUB PUSH0 DUP4 ADD MSTORE PUSH2 0xA5E DUP2 PUSH2 0xA25 JUMP JUMPDEST SWAP1 POP SWAP2 SWAP1 POP JUMP JUMPDEST PUSH0 DUP2 SWAP1 POP DUP2 PUSH0 MSTORE PUSH1 0x20 PUSH0 KECCAK256 SWAP1 POP SWAP2 SWAP1 POP JUMP JUMPDEST PUSH0 PUSH1 0x20 PUSH1 0x1F DUP4 ADD DIV SWAP1 POP SWAP2 SWAP1 POP JUMP JUMPDEST PUSH0 DUP3 DUP3 SHL SWAP1 POP SWAP3 SWAP2 POP POP JUMP JUMPDEST PUSH0 PUSH1 0x8 DUP4 MUL PUSH2 0xAC1 PUSH32 0xFFFFFFFFFFFFFFFFFFFFFFFFFFFFFFFFFFFFFFFFFFFFFFFFFFFFFFFFFFFFFFFF DUP3 PUSH2 0xA86 JUMP JUMPDEST PUSH2 0xACB DUP7 DUP4 PUSH2 0xA86 JUMP JUMPDEST SWAP6 POP DUP1 NOT DUP5 AND SWAP4 POP DUP1 DUP7 AND DUP5 OR SWAP3 POP POP POP SWAP4 SWAP3 POP POP POP JUMP JUMPDEST PUSH0 DUP2 SWAP1 POP SWAP2 SWAP1 POP JUMP JUMPDEST PUSH0 DUP2 SWAP1 POP SWAP2 SWAP1 POP JUMP JUMPDEST PUSH0 PUSH2 0xB0F PUSH2 0xB0A PUSH2 0xB05 DUP5 PUSH2 0xAE3 JUMP JUMPDEST PUSH2 0xAEC JUMP JUMPDEST PUSH2 0xAE3 JUMP JUMPDEST SWAP1 POP SWAP2 SWAP1 POP JUMP JUMPDEST PUSH0 DUP2 SWAP1 POP SWAP2 SWAP1 POP JUMP JUMPDEST PUSH2 0xB28 DUP4 PUSH2 0xAF5 JUMP JUMPDEST PUSH2 0xB3C PUSH2 0xB34 DUP3 PUSH2 0xB16 JUMP JUMPDEST DUP5 DUP5 SLOAD PUSH2 0xA92 JUMP JUMPDEST DUP3 SSTORE POP POP POP POP JUMP JUMPDEST PUSH0 SWAP1 JUMP JUMPDEST PUSH2 0xB50 PUSH2 0xB44 JUMP JUMPDEST PUSH2 0xB5B DUP2 DUP5 DUP5 PUSH2 0xB1F JUMP JUMPDEST POP POP POP JUMP JUMPDEST JUMPDEST DUP2 DUP2 LT ISZERO PUSH2 0xB7E JUMPI PUSH2 0xB73 PUSH0 DUP3 PUSH2 0xB48 JUMP JUMPDEST PUSH1 0x1 DUP2 ADD SWAP1 POP PUSH2 0xB61 JUMP JUMPDEST POP POP JUMP JUMPDEST PUSH1 0x1F DUP3 GT ISZERO PUSH2 0xBC3 JUMPI PUSH2 0xB94 DUP2 PUSH2 0xA65 JUMP JUMPDEST PUSH2 0xB9D DUP5 PUSH2 0xA77 JUMP JUMPDEST DUP2 ADD PUSH1 0x20 DUP6 LT ISZERO PUSH2 0xBAC JUMPI DUP2 SWAP1 POP JUMPDEST PUSH2 0xBC0 PUSH2 0xBB8 DUP6 PUSH2 0xA77 JUMP JUMPDEST DUP4 ADD DUP3 PUSH2 0xB60 JUMP JUMPDEST POP POP JUMPDEST POP POP POP JUMP JUMPDEST PUSH0 DUP3 DUP3 SHR SWAP1 POP SWAP3 SWAP2 POP POP JUMP JUMPDEST PUSH0 PUSH2 0xBE3 PUSH0 NOT DUP5 PUSH1 0x8 MUL PUSH2 0xBC8 JUMP JUMPDEST NOT DUP1 DUP4 AND SWAP2 POP POP SWAP3 SWAP2 POP POP JUMP JUMPDEST PUSH0 PUSH2 0xBFB DUP4 DUP4 PUSH2 0xBD4 JUMP JUMPDEST SWAP2 POP DUP3 PUSH1 0x2 MUL DUP3 OR SWAP1 POP SWAP3 SWAP2 POP POP JUMP JUMPDEST PUSH2 0xC14 DUP3 PUSH2 0x670 JUMP JUMPDEST PUSH8 0xFFFFFFFFFFFFFFFF DUP2 GT ISZERO PUSH2 0xC2D JUMPI PUSH2 0xC2C PUSH2 0x779 JUMP JUMPDEST JUMPDEST PUSH2 0xC37 DUP3 SLOAD PUSH2 0x9CD JUMP JUMPDEST PUSH2 0xC42 DUP3 DUP3 DUP6 PUSH2 0xB82 JUMP JUMPDEST PUSH0 PUSH1 0x20 SWAP1 POP PUSH1 0x1F DUP4 GT PUSH1 0x1 DUP2 EQ PUSH2 0xC73 JUMPI PUSH0 DUP5 ISZERO PUSH2 0xC61 JUMPI DUP3 DUP8 ADD MLOAD SWAP1 POP JUMPDEST PUSH2 0xC6B DUP6 DUP3 PUSH2 0xBF0 JUMP JUMPDEST DUP7 SSTORE POP PUSH2 0xCD2 JUMP JUMPDEST PUSH1 0x1F NOT DUP5 AND PUSH2 0xC81 DUP7 PUSH2 0xA65 JUMP JUMPDEST PUSH0 JUMPDEST DUP3 DUP2 LT ISZERO PUSH2 0xCA8 JUMPI DUP5 DUP10 ADD MLOAD DUP3 SSTORE PUSH1 0x1 DUP3 ADD SWAP2 POP PUSH1 0x20 DUP6 ADD SWAP5 POP PUSH1 0x20 DUP2 ADD SWAP1 POP PUSH2 0xC83 JUMP JUMPDEST DUP7 DUP4 LT ISZERO PUSH2 0xCC5 JUMPI DUP5 DUP10 ADD MLOAD PUSH2 0xCC1 PUSH1 0x1F DUP10 AND DUP3 PUSH2 0xBD4 JUMP JUMPDEST DUP4 SSTORE POP JUMPDEST PUSH1 0x1 PUSH1 0x2 DUP9 MUL ADD DUP9 SSTORE POP POP POP JUMPDEST POP POP POP POP POP POP JUMP JUMPDEST PUSH0 PUSH1 0xA0 DUP3 ADD SWAP1 POP DUP2 DUP2 SUB PUSH0 DUP4 ADD MSTORE PUSH2 0xCF2 DUP2 DUP9 PUSH2 0x6A8 JUMP JUMPDEST SWAP1 POP DUP2 DUP2 SUB PUSH1 0x20 DUP4 ADD MSTORE PUSH2 0xD06 DUP2 DUP8 PUSH2 0x6A8 JUMP JUMPDEST SWAP1 POP DUP2 DUP2 SUB PUSH1 0x40 DUP4 ADD MSTORE PUSH2 0xD1A DUP2 DUP7 PUSH2 0x6A8 JUMP JUMPDEST SWAP1 POP DUP2 DUP2 SUB PUSH1 0x60 DUP4 ADD MSTORE PUSH2 0xD2E DUP2 DUP6 PUSH2 0x6A8 JUMP JUMPDEST SWAP1 POP DUP2 DUP2 SUB PUSH1 0x80 DUP4 ADD MSTORE PUSH2 0xD42 DUP2 DUP5 PUSH2 0x6A8 JUMP JUMPDEST SWAP1 POP SWAP7 SWAP6 POP POP POP POP POP POP JUMP INVALID LOG2 PUSH5 0x6970667358 0x22 SLT KECCAK256 0xDF DUP9 BLOCKHASH DUP8 INVALID GAS DUP4 0x23 SWAP1 0xB7 0xB0 0xD7 LOG4 0x2A CODECOPY 0xDC 0xBE 0x4B 0x4F 0x4D 0xF8 0xE6 0xC9 0xDD MSTORE SGT BLOCKHASH CALLDATACOPY CHAINID 0x4B 0xC4 0x1F PUSH5 0x736F6C6343 STOP ADDMOD BYTE STOP CALLER "
				},
				"gasEstimates": {
					"creation": {
						"codeDepositCost": "692000",
						"executionCost": "726",
						"totalCost": "692726"
					},
					"external": {
						"registerUser(string,string,string,string,string)": "infinite",
						"users(address)": "infinite"
					}
				},
				"methodIdentifiers": {
					"registerUser(string,string,string,string,string)": "ac9f0a40",
					"users(address)": "a87430ba"
				}
			},
			"storageLayout": {
				"storage": [
					{
						"astId": 19,
						"contract": "register_user.sol:userRegister",
						"label": "users",
						"offset": 0,
						"slot": "0",
						"type": "t_mapping(t_address,t_struct(User)14_storage)"
					}
				],
				"types": {
					"t_address": {
						"encoding": "inplace",
						"label": "address",
						"numberOfBytes": "20"
					},
					"t_mapping(t_address,t_struct(User)14_storage)": {
						"encoding": "mapping",
						"key": "t_address",
						"label": "mapping(address => struct userRegister.User)",
						"numberOfBytes": "32",
						"value": "t_struct(User)14_storage"
					},
					"t_string_storage": {
						"encoding": "bytes",
						"label": "string",
						"numberOfBytes": "32"
					},
					"t_struct(User)14_storage": {
						"encoding": "inplace",
						"label": "struct userRegister.User",
						"members": [
							{
								"astId": 3,
								"contract": "register_user.sol:userRegister",
								"label": "email",
								"offset": 0,
								"slot": "0",
								"type": "t_string_storage"
							},
							{
								"astId": 5,
								"contract": "register_user.sol:userRegister",
								"label": "first_name",
								"offset": 0,
								"slot": "1",
								"type": "t_string_storage"
							},
							{
								"astId": 7,
								"contract": "register_user.sol:userRegister",
								"label": "last_name",
								"offset": 0,
								"slot": "2",
								"type": "t_string_storage"
							},
							{
								"astId": 9,
								"contract": "register_user.sol:userRegister",
								"label": "house_address",
								"offset": 0,
								"slot": "3",
								"type": "t_string_storage"
							},
							{
								"astId": 11,
								"contract": "register_user.sol:userRegister",
								"label": "role",
								"offset": 0,
								"slot": "4",
								"type": "t_string_storage"
							},
							{
								"astId": 13,
								"contract": "register_user.sol:userRegister",
								"label": "wallet_address",
								"offset": 0,
								"slot": "5",
								"type": "t_address"
							}
						],
						"numberOfBytes": "192"
					}
				}
			},
			"userdoc": {
				"kind": "user",
				"methods": {},
				"version": 1
			}
		}
	}
}